{
  "_format": "hh-sol-artifact-1",
  "contractName": "UPIRamp",
  "sourceName": "contracts/Ramp.sol",
  "abi": [
    {
      "inputs": [
        {
          "internalType": "address",
          "name": "_owner",
          "type": "address"
        },
        {
          "internalType": "contract IERC20",
          "name": "_usdc",
          "type": "address"
        },
        {
          "internalType": "contract IPoseidon3",
          "name": "_poseidon3",
          "type": "address"
        },
        {
          "internalType": "contract IPoseidon6",
          "name": "_poseidon6",
          "type": "address"
        },
        {
          "internalType": "uint256",
          "name": "_minDepositAmount",
          "type": "uint256"
        },
        {
          "internalType": "uint256",
          "name": "_maxOnRampAmount",
          "type": "uint256"
        },
        {
          "internalType": "uint256",
          "name": "_intentExpirationPeriod",
          "type": "uint256"
        },
        {
          "internalType": "uint256",
          "name": "_onRampCooldownPeriod",
          "type": "uint256"
        },
        {
          "internalType": "uint256",
          "name": "_sustainabilityFee",
          "type": "uint256"
        },
        {
          "internalType": "address",
          "name": "_sustainabilityFeeRecipient",
          "type": "address"
        },
        {
          "internalType": "address",
          "name": "_offChainVerifier",
          "type": "address"
        }
      ],
      "stateMutability": "nonpayable",
      "type": "constructor"
    },
    {
      "anonymous": false,
      "inputs": [
        {
          "indexed": true,
          "internalType": "address",
          "name": "previousOwner",
          "type": "address"
        },
        {
          "indexed": true,
          "internalType": "address",
          "name": "newOwner",
          "type": "address"
        }
      ],
      "name": "OwnershipTransferred",
      "type": "event"
    },
    {
      "inputs": [],
      "name": "depositCounter",
      "outputs": [
        {
          "internalType": "uint256",
          "name": "",
          "type": "uint256"
        }
      ],
      "stateMutability": "view",
      "type": "function"
    },
    {
      "inputs": [
        {
          "internalType": "uint256",
          "name": "",
          "type": "uint256"
        }
      ],
      "name": "deposits",
      "outputs": [
        {
          "internalType": "address",
          "name": "depositor",
          "type": "address"
        },
        {
          "internalType": "string",
          "name": "upiId",
          "type": "string"
        },
        {
          "internalType": "uint256",
          "name": "depositAmount",
          "type": "uint256"
        },
        {
          "internalType": "uint256",
          "name": "remainingDeposits",
          "type": "uint256"
        },
        {
          "internalType": "uint256",
          "name": "outstandingIntentAmount",
          "type": "uint256"
        },
        {
          "internalType": "uint256",
          "name": "conversionRate",
          "type": "uint256"
        }
      ],
      "stateMutability": "view",
      "type": "function"
    },
    {
      "inputs": [
        {
          "internalType": "address",
          "name": "_account",
          "type": "address"
        }
      ],
      "name": "getAccountInfo",
      "outputs": [
        {
          "components": [
            {
              "internalType": "bytes32",
              "name": "idHash",
              "type": "bytes32"
            },
            {
              "internalType": "uint256[]",
              "name": "deposits",
              "type": "uint256[]"
            }
          ],
          "internalType": "struct UPIRamp.AccountInfo",
          "name": "",
          "type": "tuple"
        }
      ],
      "stateMutability": "view",
      "type": "function"
    },
    {
      "inputs": [
        {
          "internalType": "uint256",
          "name": "_amount",
          "type": "uint256"
        }
      ],
      "name": "getBestRate",
      "outputs": [
        {
          "internalType": "uint256",
          "name": "bestDepositId",
          "type": "uint256"
        },
        {
          "internalType": "uint256",
          "name": "bestRate",
          "type": "uint256"
        }
      ],
      "stateMutability": "view",
      "type": "function"
    },
    {
      "inputs": [
        {
          "internalType": "uint256",
          "name": "_depositId",
          "type": "uint256"
        }
      ],
      "name": "getDeposit",
      "outputs": [
        {
          "components": [
            {
              "internalType": "address",
              "name": "depositor",
              "type": "address"
            },
            {
              "internalType": "string",
              "name": "upiId",
              "type": "string"
            },
            {
              "internalType": "uint256",
              "name": "depositAmount",
              "type": "uint256"
            },
            {
              "internalType": "uint256",
              "name": "remainingDeposits",
              "type": "uint256"
            },
            {
              "internalType": "uint256",
              "name": "outstandingIntentAmount",
              "type": "uint256"
            },
            {
              "internalType": "uint256",
              "name": "conversionRate",
              "type": "uint256"
            },
            {
              "internalType": "bytes32[]",
              "name": "intentHashes",
              "type": "bytes32[]"
            }
          ],
          "internalType": "struct UPIRamp.Deposit",
          "name": "",
          "type": "tuple"
        }
      ],
      "stateMutability": "view",
      "type": "function"
    },
    {
      "inputs": [
        {
          "internalType": "uint256[]",
          "name": "_depositIds",
          "type": "uint256[]"
        }
      ],
      "name": "getDepositFromIds",
      "outputs": [
        {
          "components": [
            {
              "internalType": "uint256",
              "name": "depositId",
              "type": "uint256"
            },
            {
              "components": [
                {
                  "internalType": "address",
                  "name": "depositor",
                  "type": "address"
                },
                {
                  "internalType": "string",
                  "name": "upiId",
                  "type": "string"
                },
                {
                  "internalType": "uint256",
                  "name": "depositAmount",
                  "type": "uint256"
                },
                {
                  "internalType": "uint256",
                  "name": "remainingDeposits",
                  "type": "uint256"
                },
                {
                  "internalType": "uint256",
                  "name": "outstandingIntentAmount",
                  "type": "uint256"
                },
                {
                  "internalType": "uint256",
                  "name": "conversionRate",
                  "type": "uint256"
                },
                {
                  "internalType": "bytes32[]",
                  "name": "intentHashes",
                  "type": "bytes32[]"
                }
              ],
              "internalType": "struct UPIRamp.Deposit",
              "name": "deposit",
              "type": "tuple"
            },
            {
              "internalType": "uint256",
              "name": "availableLiquidity",
              "type": "uint256"
            }
          ],
          "internalType": "struct UPIRamp.DepositWithAvailableLiquidity[]",
          "name": "depositArray",
          "type": "tuple[]"
        }
      ],
      "stateMutability": "view",
      "type": "function"
    },
    {
      "inputs": [
        {
          "internalType": "address",
          "name": "_account",
          "type": "address"
        }
      ],
      "name": "getIdCurrentIntentHash",
      "outputs": [
        {
          "internalType": "bytes32",
          "name": "",
          "type": "bytes32"
        }
      ],
      "stateMutability": "view",
      "type": "function"
    },
    {
      "inputs": [
        {
          "internalType": "address",
          "name": "_account",
          "type": "address"
        }
      ],
      "name": "getLastOnRampTimestamp",
      "outputs": [
        {
          "internalType": "uint256",
          "name": "",
          "type": "uint256"
        }
      ],
      "stateMutability": "view",
      "type": "function"
    },
    {
      "inputs": [
        {
          "internalType": "contract IRegistrationProcessor",
          "name": "_registrationProcessor",
          "type": "address"
        },
        {
          "internalType": "contract IUPISendProcessor",
          "name": "_sendProcessor",
          "type": "address"
        }
      ],
      "name": "initialize",
      "outputs": [],
      "stateMutability": "nonpayable",
      "type": "function"
    },
    {
      "inputs": [],
      "name": "intentExpirationPeriod",
      "outputs": [
        {
          "internalType": "uint256",
          "name": "",
          "type": "uint256"
        }
      ],
      "stateMutability": "view",
      "type": "function"
    },
    {
      "inputs": [
        {
          "internalType": "bytes32",
          "name": "",
          "type": "bytes32"
        }
      ],
      "name": "intents",
      "outputs": [
        {
          "internalType": "address",
          "name": "onRamper",
          "type": "address"
        },
        {
          "internalType": "address",
          "name": "to",
          "type": "address"
        },
        {
          "internalType": "uint256",
          "name": "deposit",
          "type": "uint256"
        },
        {
          "internalType": "uint256",
          "name": "amount",
          "type": "uint256"
        },
        {
          "internalType": "uint256",
          "name": "intentTimestamp",
          "type": "uint256"
        }
      ],
      "stateMutability": "view",
      "type": "function"
    },
    {
      "inputs": [],
      "name": "maxOnRampAmount",
      "outputs": [
        {
          "internalType": "uint256",
          "name": "",
          "type": "uint256"
        }
      ],
      "stateMutability": "view",
      "type": "function"
    },
    {
      "inputs": [],
      "name": "minDepositAmount",
      "outputs": [
        {
          "internalType": "uint256",
          "name": "",
          "type": "uint256"
        }
      ],
      "stateMutability": "view",
      "type": "function"
    },
    {
      "inputs": [],
      "name": "offChainVerifier",
      "outputs": [
        {
          "internalType": "address",
          "name": "",
          "type": "address"
        }
      ],
      "stateMutability": "view",
      "type": "function"
    },
    {
      "inputs": [
        {
          "internalType": "string",
          "name": "_upiId",
          "type": "string"
        },
        {
          "internalType": "uint256",
          "name": "_depositAmount",
          "type": "uint256"
        },
        {
          "internalType": "uint256",
          "name": "_receiveAmount",
          "type": "uint256"
        }
      ],
      "name": "offRamp",
      "outputs": [],
      "stateMutability": "nonpayable",
      "type": "function"
    },
    {
      "inputs": [
        {
          "internalType": "uint256[2]",
          "name": "_a",
          "type": "uint256[2]"
        },
        {
          "internalType": "uint256[2][2]",
          "name": "_b",
          "type": "uint256[2][2]"
        },
        {
          "internalType": "uint256[2]",
          "name": "_c",
          "type": "uint256[2]"
        },
        {
          "internalType": "uint256[3]",
          "name": "_signals",
          "type": "uint256[3]"
        }
      ],
      "name": "onRamp",
      "outputs": [],
      "stateMutability": "nonpayable",
      "type": "function"
    },
    {
      "inputs": [],
      "name": "onRampCooldownPeriod",
      "outputs": [
        {
          "internalType": "uint256",
          "name": "",
          "type": "uint256"
        }
      ],
      "stateMutability": "view",
      "type": "function"
    },
    {
      "inputs": [
        {
          "internalType": "bytes32",
          "name": "_intentHash",
          "type": "bytes32"
        },
        {
          "internalType": "uint256",
          "name": "_amount",
          "type": "uint256"
        },
        {
          "internalType": "uint256",
          "name": "_timestamp",
          "type": "uint256"
        },
        {
          "internalType": "string",
          "name": "_depositorId",
          "type": "string"
        }
      ],
      "name": "onRampWithoutProof",
      "outputs": [],
      "stateMutability": "nonpayable",
      "type": "function"
    },
    {
      "inputs": [],
      "name": "owner",
      "outputs": [
        {
          "internalType": "address",
          "name": "",
          "type": "address"
        }
      ],
      "stateMutability": "view",
      "type": "function"
    },
    {
      "inputs": [],
      "name": "poseidon3",
      "outputs": [
        {
          "internalType": "contract IPoseidon3",
          "name": "",
          "type": "address"
        }
      ],
      "stateMutability": "view",
      "type": "function"
    },
    {
      "inputs": [],
      "name": "poseidon6",
      "outputs": [
        {
          "internalType": "contract IPoseidon6",
          "name": "",
          "type": "address"
        }
      ],
      "stateMutability": "view",
      "type": "function"
    },
    {
      "inputs": [
        {
          "internalType": "uint256[2]",
          "name": "_a",
          "type": "uint256[2]"
        },
        {
          "internalType": "uint256[2][2]",
          "name": "_b",
          "type": "uint256[2][2]"
        },
        {
          "internalType": "uint256[2]",
          "name": "_c",
          "type": "uint256[2]"
        },
        {
          "internalType": "uint256[1]",
          "name": "_signals",
          "type": "uint256[1]"
        }
      ],
      "name": "register",
      "outputs": [],
      "stateMutability": "nonpayable",
      "type": "function"
    },
    {
      "inputs": [
        {
          "internalType": "string",
          "name": "_idHash",
          "type": "string"
        }
      ],
      "name": "registerWithoutProof",
      "outputs": [],
      "stateMutability": "nonpayable",
      "type": "function"
    },
    {
      "inputs": [],
      "name": "registrationProcessor",
      "outputs": [
        {
          "internalType": "contract IRegistrationProcessor",
          "name": "",
          "type": "address"
        }
      ],
      "stateMutability": "view",
      "type": "function"
    },
    {
      "inputs": [],
      "name": "renounceOwnership",
      "outputs": [],
      "stateMutability": "nonpayable",
      "type": "function"
    },
    {
      "inputs": [],
      "name": "sendProcessor",
      "outputs": [
        {
          "internalType": "contract IUPISendProcessor",
          "name": "",
          "type": "address"
        }
      ],
      "stateMutability": "view",
      "type": "function"
    },
    {
      "inputs": [
        {
          "internalType": "uint256",
          "name": "_maxOnRampAmount",
          "type": "uint256"
        }
      ],
      "name": "setMaxOnRampAmount",
      "outputs": [],
      "stateMutability": "nonpayable",
      "type": "function"
    },
    {
      "inputs": [
        {
          "internalType": "address",
          "name": "_offChainVerifier",
          "type": "address"
        }
      ],
      "name": "setOffchainVerifier",
      "outputs": [],
      "stateMutability": "nonpayable",
      "type": "function"
    },
    {
      "inputs": [
        {
          "internalType": "contract IRegistrationProcessor",
          "name": "_registrationProcessor",
          "type": "address"
        }
      ],
      "name": "setRegistrationProcessor",
      "outputs": [],
      "stateMutability": "nonpayable",
      "type": "function"
    },
    {
      "inputs": [
        {
          "internalType": "contract IUPISendProcessor",
          "name": "_sendProcessor",
          "type": "address"
        }
      ],
      "name": "setSendProcessor",
      "outputs": [],
      "stateMutability": "nonpayable",
      "type": "function"
    },
    {
      "inputs": [
        {
          "internalType": "uint256",
          "name": "_depositId",
          "type": "uint256"
        },
        {
          "internalType": "uint256",
          "name": "_amount",
          "type": "uint256"
        },
        {
          "internalType": "address",
          "name": "_to",
          "type": "address"
        }
      ],
      "name": "signalIntent",
      "outputs": [],
      "stateMutability": "nonpayable",
      "type": "function"
    },
    {
      "inputs": [],
      "name": "sustainabilityFee",
      "outputs": [
        {
          "internalType": "uint256",
          "name": "",
          "type": "uint256"
        }
      ],
      "stateMutability": "view",
      "type": "function"
    },
    {
      "inputs": [],
      "name": "sustainabilityFeeRecipient",
      "outputs": [
        {
          "internalType": "address",
          "name": "",
          "type": "address"
        }
      ],
      "stateMutability": "view",
      "type": "function"
    },
    {
      "inputs": [
        {
          "internalType": "address",
          "name": "newOwner",
          "type": "address"
        }
      ],
      "name": "transferOwnership",
      "outputs": [],
      "stateMutability": "nonpayable",
      "type": "function"
    },
    {
      "inputs": [],
      "name": "usdc",
      "outputs": [
        {
          "internalType": "contract IERC20",
          "name": "",
          "type": "address"
        }
      ],
      "stateMutability": "view",
      "type": "function"
    }
  ],
  "bytecode": "0x60e06040523480156200001157600080fd5b50604051620034e1380380620034e18339810160408190526200003491620001fc565b6200003f33620000b5565b6001600160a01b038a811660805289811660a05288811660c052600380546001600160a01b03199081168484161790915560088990556009889055600b879055600a869055600c859055600d8054909116918416919091179055620000a48b62000105565b5050505050505050505050620002c6565b600080546001600160a01b038381166001600160a01b0319831681178455604051919092169283917f8be0079c531659141344cd1fd0a4f28419497f9722a3daafe3b4186f6b6457e09190a35050565b6200010f62000188565b6001600160a01b0381166200017a5760405162461bcd60e51b815260206004820152602660248201527f4f776e61626c653a206e6577206f776e657220697320746865207a65726f206160448201526564647265737360d01b60648201526084015b60405180910390fd5b6200018581620000b5565b50565b6000546001600160a01b03163314620001e45760405162461bcd60e51b815260206004820181905260248201527f4f776e61626c653a2063616c6c6572206973206e6f7420746865206f776e6572604482015260640162000171565b565b6001600160a01b03811681146200018557600080fd5b60008060008060008060008060008060006101608c8e0312156200021f57600080fd5b8b516200022c81620001e6565b60208d0151909b506200023f81620001e6565b60408d0151909a506200025281620001e6565b60608d01519099506200026581620001e6565b8098505060808c0151965060a08c0151955060c08c0151945060e08c015193506101008c015192506101208c01516200029e81620001e6565b6101408d0151909250620002b281620001e6565b809150509295989b509295989b9093969950565b60805160a05160c0516131d66200030b60003960006103420152600061053c01526000818161039401528181610cc901528181611d1a0152611dc901526131d66000f3fe608060405234801561001057600080fd5b50600436106102115760003560e01c806371a28f6911610125578063be7ee7c8116100ad578063e279d9641161007c578063e279d96414610584578063ecb3dc881461058d578063ed1692b814610596578063eea1d197146105a9578063f2fde38b146105bc57600080fd5b8063be7ee7c814610524578063cce3e03814610537578063d9478d201461055e578063e215ad591461057157600080fd5b80639087beff116100f45780639087beff146104b05780639f9fb968146104c3578063a1a954b7146104e3578063a2333a61146104ec578063b02c43d0146104ff57600080fd5b806371a28f69146103e35780637b510fe8146104035780638da5cb5b146104235780639021578a1461043457600080fd5b806336a175ef116101a85780633e413bee116101775780633e413bee1461038f578063485cc955146103b6578063495223e7146103c9578063645006ca146103d2578063715018a6146103db57600080fd5b806336a175ef1461031757806337fbdf6d1461032a5780633930a4391461033d5780633adba28a1461037c57600080fd5b80632055a6e1116101e45780632055a6e1146102c0578063238c8494146102d357806327c6e693146102dc578063314a61c51461030457600080fd5b80630d4c3ad9146102165780630f1ef98c1461022b578063133de6cb1461027757806314ec32fa1461028a575b600080fd5b61022961022436600461273a565b6105cf565b005b610264610239366004612807565b6001600160a01b03166000908152600560209081526040808320548352600490915290206001015490565b6040519081526020015b60405180910390f35b610229610285366004612807565b61065c565b610264610298366004612807565b6001600160a01b03166000908152600560209081526040808320548352600490915290205490565b6102296102ce36600461289b565b610686565b610264600c5481565b6102ef6102ea3660046128f5565b6108d1565b6040805192835260208301919091520161026e565b61022961031236600461290e565b61095f565b6102296103253660046129c6565b6109b1565b6102296103383660046129fb565b6109fa565b6103647f000000000000000000000000000000000000000000000000000000000000000081565b6040516001600160a01b03909116815260200161026e565b61022961038a366004612a49565b610d3f565b6103647f000000000000000000000000000000000000000000000000000000000000000081565b6102296103c4366004612a82565b611274565b610264600a5481565b61026460085481565b61022961130d565b6103f66103f1366004612abb565b611321565b60405161026e9190612c45565b610416610411366004612807565b611559565b60405161026e9190612cc6565b6000546001600160a01b0316610364565b61047d6104423660046128f5565b600760205260009081526040902080546001820154600283015460038401546004909401546001600160a01b03938416949390921692909185565b604080516001600160a01b039687168152959094166020860152928401919091526060830152608082015260a00161026e565b6102296104be3660046128f5565b6115f3565b6104d66104d13660046128f5565b61165a565b60405161026e9190612d10565b610264600b5481565b600354610364906001600160a01b031681565b61051261050d3660046128f5565b6117a5565b60405161026e96959493929190612d23565b610229610532366004612807565b61186c565b6103647f000000000000000000000000000000000000000000000000000000000000000081565b600d54610364906001600160a01b031681565b600154610364906001600160a01b031681565b61026460095481565b610264600e5481565b6102296105a4366004612807565b611896565b600254610364906001600160a01b031681565b6102296105ca366004612807565b6118c0565b60008060006105e087878787611939565b9250925092506105f08282611b6d565b82606001518260040160008282546106089190612d82565b909155505082516001600160a01b03166000908152600560209081526040808320548352600490915290819020426001909101558301516106499083611c16565b6106538184611cbd565b50505050505050565b610664611e36565b600280546001600160a01b0319166001600160a01b0392909216919091179055565b6003546001600160a01b031633146106e55760405162461bcd60e51b815260206004820181905260248201527f43616c6c6572206d757374206265206f6666636861696e20766572696669657260448201526064015b60405180910390fd5b6000848152600760209081526040808320815160a08101835281546001600160a01b03908116825260018301548116828601526002830154828501819052600384015460608401526004909301546080830152918552600690935292208151919290911661078d5760405162461bcd60e51b8152602060048201526015602482015274125b9d195b9d08191bd95cc81b9bdd08195e1a5cdd605a1b60448201526064016106dc565b83826080015111156107b15760405162461bcd60e51b81526004016106dc90612d9b565b8060050154670de0b6b3a764000083606001516107ce9190612ddd565b6107d89190612e0a565b8510156108205760405162461bcd60e51b81526020600482015260166024820152750a0c2f2dacadce840eec2e640dcdee840cadcdeeaced60531b60448201526064016106dc565b600061082b84611e90565b82546001600160a01b031660009081526005602052604090205490915061085182611eaf565b61085a81611eaf565b6108648389611b6d565b836060015183600401600082825461087c9190612d82565b909155505083516001600160a01b03166000908152600560209081526040808320548352600490915290819020426001909101558401516108bd9084611c16565b6108c78885611cbd565b5050505050505050565b600080805260066020527f54cdd369e4e8a8515e52ca72ec816c2101831ad1f18bf44102ed171459c9b4fd5460015b600e5481101561095957600081815260066020526040902060050154828111801561093c57506000828152600660205260409020600301548511155b15610948578193508092505b5061095281612e1e565b9050610900565b50915091565b336000908152600560205260409020541561098c5760405162461bcd60e51b81526004016106dc90612e37565b600061099a85858585611ef4565b336000908152600560205260409020555050505050565b33600090815260056020526040902054156109de5760405162461bcd60e51b81526004016106dc90612e37565b6109e781611e90565b3360009081526005602052604090205550565b33600090815260056020526040902054610a565760405162461bcd60e51b815260206004820152601e60248201527f43616c6c6572206d75737420626520726567697374657265642075736572000060448201526064016106dc565b3360009081526005602081905260409091206001015410610ab95760405162461bcd60e51b815260206004820152601e60248201527f4d6178696d756d206465706f73697420616d6f756e742072656163686564000060448201526064016106dc565b600854821015610b2a5760405162461bcd60e51b815260206004820152603660248201527f4465706f73697420616d6f756e74206d757374206265206772656174657220746044820152751a185b881b5a5b8819195c1bdcda5d08185b5bdd5b9d60521b60648201526084016106dc565b60008111610b885760405162461bcd60e51b815260206004820152602560248201527f5265636569766520616d6f756e74206d75737420626520677265617465722074604482015264068616e20360dc1b60648201526084016106dc565b600081610b9d670de0b6b3a764000085612ddd565b610ba79190612e0a565b600e80549192506000919082610bbc83612e1e565b9091555033600081815260056020908152604080832060018082018054808301825590865284862001879055825160e0810184529586528584018c81528684018c9052606087018c90526080870186905260a087018a90528351868152808601855260c0880152878652600690945291909320845181546001600160a01b0319166001600160a01b03909116178155915194955091939091820190610c619082612eff565b5060408201516002820155606082015160038201556080820151600482015560a0820151600582015560c08201518051610ca591600684019160209091019061250a565b50506040516323b872dd60e01b8152336004820152306024820152604481018790527f00000000000000000000000000000000000000000000000000000000000000006001600160a01b031691506323b872dd906064016020604051808303816000875af1158015610d1b573d6000803e3d6000fd5b505050506040513d601f19601f820116820180604052508101906106539190612fbf565b33600090815260056020526040902054610d9b5760405162461bcd60e51b815260206004820152601e60248201527f43616c6c6572206d75737420626520726567697374657265642075736572000060448201526064016106dc565b336000908152600560208181526040808420548785526006835281852080546001600160a01b03168652938352818520548086526004845282862082875260030190935293205460ff1615610e325760405162461bcd60e51b815260206004820181905260248201527f4f6e72616d706572206f6e206465706f7369746f7227732064656e796c69737460448201526064016106dc565b600a546000848152600460205260409020600101544291610e5291612fe1565b1115610eac5760405162461bcd60e51b8152602060048201526024808201527f4f6e2072616d7020636f6f6c20646f776e20706572696f64206e6f7420656c616044820152631c1cd95960e21b60648201526084016106dc565b60008381526004602052604090205415610f085760405162461bcd60e51b815260206004820152601860248201527f496e74656e74207374696c6c206f75747374616e64696e67000000000000000060448201526064016106dc565b828103610f575760405162461bcd60e51b815260206004820152601e60248201527f53656e6465722063616e6e6f7420626520746865206465706f7369746f72000060448201526064016106dc565b81546001600160a01b0316610fa75760405162461bcd60e51b815260206004820152601660248201527511195c1bdcda5d08191bd95cc81b9bdd08195e1a5cdd60521b60448201526064016106dc565b600085116110065760405162461bcd60e51b815260206004820152602660248201527f5369676e616c656420616d6f756e74206d75737420626520677265617465722060448201526507468616e20360d41b60648201526084016106dc565b6009548511156110755760405162461bcd60e51b815260206004820152603460248201527f5369676e616c656420616d6f756e74206d757374206265206c657373207468616044820152731b881b585e081bdb8b5c985b5c08185b5bdd5b9d60621b60648201526084016106dc565b6001600160a01b0384166110cb5760405162461bcd60e51b815260206004820152601b60248201527f43616e6e6f742073656e6420746f207a65726f2061646472657373000000000060448201526064016106dc565b60006110d78488611f92565b9050858360030154101561118c576000806110f189611ffd565b91509150878186600301546111069190612fe1565b101561114b5760405162461bcd60e51b81526020600482015260146024820152734e6f7420656e6f756768206c697175696469747960601b60448201526064016106dc565b61115585836121ad565b808560030160008282546111699190612fe1565b92505081905550808560040160008282546111849190612d82565b909155505050505b6040805160a0810182523381526001600160a01b0387811660208084019182528385018c8152606085018c81524260808701908152600089815260078552888120975188549088166001600160a01b031991821617895595516001890180549190981696169590951790955590516002860155516003808601919091559251600494850155888252929092529181208390559084018054889290611231908490612d82565b925050819055508583600401600082825461124c9190612fe1565b9091555050600690920180546001810182556000918252602090912001919091555050505050565b61127c611e36565b600354600160a01b900460ff16156112cc5760405162461bcd60e51b8152602060048201526013602482015272105b1c9958591e481a5b9a5d1a585b1a5e9959606a1b60448201526064016106dc565b600180546001600160a01b039384166001600160a01b031991821617909155600280549290931691161790556003805460ff60a01b1916600160a01b179055565b611315611e36565b61131f600061220f565b565b6060815167ffffffffffffffff81111561133d5761133d61262b565b60405190808252806020026020018201604052801561137657816020015b611363612555565b81526020019060019003908161135b5790505b50905060005b825181101561155357600083828151811061139957611399612ff4565b6020908102919091018101516000818152600683526040808220815160e0810190925280546001600160a01b0316825260018101805494965092949193909291840191906113e690612e7d565b80601f016020809104026020016040519081016040528092919081815260200182805461141290612e7d565b801561145f5780601f106114345761010080835404028352916020019161145f565b820191906000526020600020905b81548152906001019060200180831161144257829003601f168201915b5050505050815260200160028201548152602001600382015481526020016004820154815260200160058201548152602001600682018054806020026020016040519081016040528092919081815260200182805480156114df57602002820191906000526020600020905b8154815260200190600101908083116114cb575b505050505081525050905060006114f583611ffd565b915050604051806060016040528084815260200183815260200182846060015161151f9190612fe1565b81525085858151811061153457611534612ff4565b60200260200101819052505050508061154c90612e1e565b905061137c565b50919050565b6040805180820190915260008152606060208201526001600160a01b0382166000908152600560209081526040918290208251808401845281548152600182018054855181860281018601909652808652919492938581019392908301828280156115e357602002820191906000526020600020905b8154815260200190600101908083116115cf575b5050505050815250509050919050565b6115fb611e36565b806000036116555760405162461bcd60e51b815260206004820152602160248201527f4d6178206f6e2072616d7020616d6f756e742063616e6e6f74206265207a65726044820152606f60f81b60648201526084016106dc565b600955565b61166261257c565b600082815260066020908152604091829020825160e0810190935280546001600160a01b03168352600181018054919284019161169e90612e7d565b80601f01602080910402602001604051908101604052809291908181526020018280546116ca90612e7d565b80156117175780601f106116ec57610100808354040283529160200191611717565b820191906000526020600020905b8154815290600101906020018083116116fa57829003601f168201915b5050505050815260200160028201548152602001600382015481526020016004820154815260200160058201548152602001600682018054806020026020016040519081016040528092919081815260200182805480156115e357602002820191906000526020600020908154815260200190600101908083116115cf575050505050815250509050919050565b600660205260009081526040902080546001820180546001600160a01b0390921692916117d190612e7d565b80601f01602080910402602001604051908101604052809291908181526020018280546117fd90612e7d565b801561184a5780601f1061181f5761010080835404028352916020019161184a565b820191906000526020600020905b81548152906001019060200180831161182d57829003601f168201915b5050505050908060020154908060030154908060040154908060050154905086565b611874611e36565b600380546001600160a01b0319166001600160a01b0392909216919091179055565b61189e611e36565b600180546001600160a01b0319166001600160a01b0392909216919091179055565b6118c8611e36565b6001600160a01b03811661192d5760405162461bcd60e51b815260206004820152602660248201527f4f776e61626c653a206e6577206f776e657220697320746865207a65726f206160448201526564647265737360d01b60648201526084016106dc565b6119368161220f565b50565b61197d6040518060a0016040528060006001600160a01b0316815260200160006001600160a01b031681526020016000815260200160008152602001600081525090565b60025460408051608081018252878152602081018790528082018690526060810185905290516345452acd60e01b815260009283928392839283926001600160a01b03909116916345452acd916119d69160040161305b565b6060604051808303816000875af11580156119f5573d6000803e3d6000fd5b505050506040513d601f19601f82011682018060405250810190611a1991906130ca565b6000818152600760209081526040808320815160a08101835281546001600160a01b03908116825260018301548116828601526002830154828501819052600384015460608401526004909301546080830152918552600690935292208151959850939650919450909216611ac85760405162461bcd60e51b8152602060048201526015602482015274125b9d195b9d08191bd95cc81b9bdd08195e1a5cdd605a1b60448201526064016106dc565b8382608001511115611aec5760405162461bcd60e51b81526004016106dc90612d9b565b8060050154670de0b6b3a76400008360600151611b099190612ddd565b611b139190612e0a565b851015611b5b5760405162461bcd60e51b81526020600482015260166024820152750a0c2f2dacadce840eec2e640dcdee840cadcdeeaced60531b60448201526064016106dc565b909b909a509098509650505050505050565b6000818152600760208181526040808420815160a08101835281546001600160a01b0390811680835260018401805490921683870152600284018054848701526003850180546060860152600480870180546080880152938b5260058952878b20548b5288529589208990558989529690955282546001600160a01b031990811690935580549092169091559284905583905591909155611c11600684018361225f565b505050565b600081600301548260040154611c2c9190612fe1565b905080600003611c115781546001600160a01b03166000908152600560205260409020611c5c9060010184612388565b600083815260066020526040812080546001600160a01b031916815590611c8660018301826125c2565b6002820160009055600382016000905560048201600090556005820160009055600682016000611cb691906125fc565b5050505050565b6000600c54600014611d8957670de0b6b3a7640000600c548360600151611ce49190612ddd565b611cee9190612e0a565b600d5460405163a9059cbb60e01b81526001600160a01b039182166004820152602481018390529192507f0000000000000000000000000000000000000000000000000000000000000000169063a9059cbb906044016020604051808303816000875af1158015611d63573d6000803e3d6000fd5b505050506040513d601f19601f82011682018060405250810190611d879190612fbf565b505b6000818360600151611d9b9190612d82565b602084015160405163a9059cbb60e01b81526001600160a01b039182166004820152602481018390529192507f0000000000000000000000000000000000000000000000000000000000000000169063a9059cbb906044016020604051808303816000875af1158015611e12573d6000803e3d6000fd5b505050506040513d601f19601f82011682018060405250810190611cb69190612fbf565b6000546001600160a01b0316331461131f5760405162461bcd60e51b815260206004820181905260248201527f4f776e61626c653a2063616c6c6572206973206e6f7420746865206f776e657260448201526064016106dc565b805160009082908203611ea65750600092915050565b50506020015190565b61193681604051602401611ec591815260200190565b60408051601f198184030181529190526020810180516001600160e01b03166327b7cf8560e01b17905261242d565b6001546040805160808101825286815260208101869052808201859052606081018490529051637bff11bf60e11b815260009283926001600160a01b039091169163f7fe237e91611f47916004016130f8565b602060405180830381865afa158015611f64573d6000803e3d6000fd5b505050506040513d601f19601f82011682018060405250810190611f88919061315d565b9695505050505050565b6040805160208101849052908101829052426060820152600090819060800160408051601f1981840301815291905280516020909101209050611ff57f30644e72e131a029b85045b68181585d2833e84879b9709143e1f593f000000182613176565b949350505050565b60606000806006600085815260200190815260200160002060060180548060200260200160405190810160405280929190818152602001828054801561206257602002820191906000526020600020905b81548152602001906001019080831161204e575b50505050509050805167ffffffffffffffff8111156120835761208361262b565b6040519080825280602002602001820160405280156120ac578160200160208202803683370190505b50925060005b81518110156121a6576000600760008484815181106120d3576120d3612ff4565b6020908102919091018101518252818101929092526040908101600020815160a08101835281546001600160a01b03908116825260018301541693810193909352600281015491830191909152600381015460608301526004015460808201819052600b54919250429161214691612fe1565b10156121955782828151811061215e5761215e612ff4565b602002602001015185838151811061217857612178612ff4565b602090810291909101015260608101516121929085612fe1565b93505b5061219f81612e1e565b90506120b2565b5050915091565b60005b8151811015611c11576000801b8282815181106121cf576121cf612ff4565b6020026020010151146121ff576121ff838383815181106121f2576121f2612ff4565b6020026020010151611b6d565b61220881612e1e565b90506121b0565b600080546001600160a01b038381166001600160a01b0319831681178455604051919092169283917f8be0079c531659141344cd1fd0a4f28419497f9722a3daafe3b4186f6b6457e09190a35050565b6000806122bb848054806020026020016040519081016040528092919081815260200182805480156122b057602002820191906000526020600020905b81548152602001906001019080831161229c575b505050505084612436565b91509150806123045760405162461bcd60e51b8152602060048201526015602482015274313cba32b99999103737ba1034b71030b93930bc9760591b60448201526064016106dc565b835460009061231590600190612d82565b905080831461235a5784818154811061233057612330612ff4565b906000526020600020015485848154811061234d5761234d612ff4565b6000918252602090912001555b8480548061236a5761236a61318a565b60019003818190600052602060002001600090559055505b50505050565b6000806123e4848054806020026020016040519081016040528092919081815260200182805480156123d957602002820191906000526020600020905b8154815260200190600101908083116123c5575b505050505084612499565b91509150806123045760405162461bcd60e51b81526020600482015260156024820152743ab4b73a191a9b103737ba1034b71030b93930bc9760591b60448201526064016106dc565b611936816124e9565b81516000908190815b81811015612486578486828151811061245a5761245a612ff4565b602002602001015103612474579250600191506124929050565b8061247e81612e1e565b91505061243f565b50600019600092509250505b9250929050565b81516000908190815b8181101561248657848682815181106124bd576124bd612ff4565b6020026020010151036124d7579250600191506124929050565b806124e181612e1e565b9150506124a2565b60006a636f6e736f6c652e6c6f679050600080835160208501845afa505050565b828054828255906000526020600020908101928215612545579160200282015b8281111561254557825182559160200191906001019061252a565b50612551929150612616565b5090565b60405180606001604052806000815260200161256f61257c565b8152602001600081525090565b6040518060e0016040528060006001600160a01b031681526020016060815260200160008152602001600081526020016000815260200160008152602001606081525090565b5080546125ce90612e7d565b6000825580601f106125de575050565b601f0160209004906000526020600020908101906119369190612616565b508054600082559060005260206000209081019061193691905b5b808211156125515760008155600101612617565b634e487b7160e01b600052604160045260246000fd5b6040805190810167ffffffffffffffff811182821017156126645761266461262b565b60405290565b604051601f8201601f1916810167ffffffffffffffff811182821017156126935761269361262b565b604052919050565b600082601f8301126126ac57600080fd5b6126b4612641565b8060408401858111156126c657600080fd5b845b818110156126e05780358452602093840193016126c8565b509095945050505050565b600082601f8301126126fc57600080fd5b612704612641565b80608084018581111561271657600080fd5b845b818110156126e05761272a878261269b565b8452602090930192604001612718565b60008060008061016080868803121561275257600080fd5b61275c878761269b565b945061276b87604088016126eb565b935061277a8760c0880161269b565b92508661011f87011261278c57600080fd5b6040516060810181811067ffffffffffffffff821117156127af576127af61262b565b6040529086019080888311156127c457600080fd5b61010088015b838110156127e25780358252602091820191016127ca565b5050809250505092959194509250565b6001600160a01b038116811461193657600080fd5b60006020828403121561281957600080fd5b8135612824816127f2565b9392505050565b600082601f83011261283c57600080fd5b813567ffffffffffffffff8111156128565761285661262b565b612869601f8201601f191660200161266a565b81815284602083860101111561287e57600080fd5b816020850160208301376000918101602001919091529392505050565b600080600080608085870312156128b157600080fd5b843593506020850135925060408501359150606085013567ffffffffffffffff8111156128dd57600080fd5b6128e98782880161282b565b91505092959194509250565b60006020828403121561290757600080fd5b5035919050565b60008060008061012080868803121561292657600080fd5b612930878761269b565b945061293f87604088016126eb565b935061294e8760c0880161269b565b92508661011f87011261296057600080fd5b604051602080820182811067ffffffffffffffff821117156129845761298461262b565b60405291870191818984111561299957600080fd5b61010089015b848110156129b6578035825290820190820161299f565b5096999598509396509450505050565b6000602082840312156129d857600080fd5b813567ffffffffffffffff8111156129ef57600080fd5b611ff58482850161282b565b600080600060608486031215612a1057600080fd5b833567ffffffffffffffff811115612a2757600080fd5b612a338682870161282b565b9660208601359650604090950135949350505050565b600080600060608486031215612a5e57600080fd5b83359250602084013591506040840135612a77816127f2565b809150509250925092565b60008060408385031215612a9557600080fd5b8235612aa0816127f2565b91506020830135612ab0816127f2565b809150509250929050565b60006020808385031215612ace57600080fd5b823567ffffffffffffffff80821115612ae657600080fd5b818501915085601f830112612afa57600080fd5b813581811115612b0c57612b0c61262b565b8060051b9150612b1d84830161266a565b8181529183018401918481019088841115612b3757600080fd5b938501935b83851015612b5557843582529385019390850190612b3c565b98975050505050505050565b6000815180845260005b81811015612b8757602081850181015186830182015201612b6b565b506000602082860101526020601f19601f83011685010191505092915050565b60018060a01b038151168252600060208083015160e082860152612bce60e0860182612b61565b905060408401516040860152606084015160608601526080840151608086015260a084015160a086015260c084015185820360c087015281815180845284840191508483019350600092505b80831015612c3a5783518252928401926001929092019190840190612c1a565b509695505050505050565b60006020808301818452808551808352604092508286019150828160051b87010184880160005b83811015612cb857603f19898403018552815160608151855288820151818a870152612c9a82870182612ba7565b92890151958901959095525094870194925090860190600101612c6c565b509098975050505050505050565b60208082528251828201528281015160408084015280516060840181905260009291820190839060808601908015612c3a5783518252928401926001929092019190840190612c1a565b6020815260006128246020830184612ba7565b6001600160a01b038716815260c060208201819052600090612d4790830188612b61565b90508560408301528460608301528360808301528260a0830152979650505050505050565b634e487b7160e01b600052601160045260246000fd5b81810381811115612d9557612d95612d6c565b92915050565b60208082526022908201527f496e74656e7420776173206e6f742063726561746564206265666f72652073656040820152611b9960f21b606082015260800190565b8082028115828204841417612d9557612d95612d6c565b634e487b7160e01b600052601260045260246000fd5b600082612e1957612e19612df4565b500490565b600060018201612e3057612e30612d6c565b5060010190565b60208082526026908201527f4163636f756e7420616c7265616479206173736f6369617465642077697468206040820152650d2c890c2e6d60d31b606082015260800190565b600181811c90821680612e9157607f821691505b60208210810361155357634e487b7160e01b600052602260045260246000fd5b601f821115611c1157600081815260208120601f850160051c81016020861015612ed85750805b601f850160051c820191505b81811015612ef757828155600101612ee4565b505050505050565b815167ffffffffffffffff811115612f1957612f1961262b565b612f2d81612f278454612e7d565b84612eb1565b602080601f831160018114612f625760008415612f4a5750858301515b600019600386901b1c1916600185901b178555612ef7565b600085815260208120601f198616915b82811015612f9157888601518255948401946001909101908401612f72565b5085821015612faf5787850151600019600388901b60f8161c191681555b5050505050600190811b01905550565b600060208284031215612fd157600080fd5b8151801515811461282457600080fd5b80820180821115612d9557612d95612d6c565b634e487b7160e01b600052603260045260246000fd5b8060005b600281101561238257815184526020938401939091019060010161300e565b8060005b60028110156123825761304584835161300a565b6040939093019260209190910190600101613031565b60006101608201905061306f82845161300a565b602080840151613082604085018261302d565b50604084015161309560c085018261300a565b506060840151610100840160005b60038110156130c0578251825291830191908301906001016130a3565b5050505092915050565b6000806000606084860312156130df57600080fd5b8351925060208401519150604084015190509250925092565b60006101208201905061310c82845161300a565b60208084015161311f604085018261302d565b50604084015161313260c085018261300a565b506060840151610100840160005b60018110156130c057825182529183019190830190600101613140565b60006020828403121561316f57600080fd5b5051919050565b60008261318557613185612df4565b500690565b634e487b7160e01b600052603160045260246000fdfea26469706673582212200dd2acf8a17096625b6b53888c1c5fb01250d2580c6093158d61bd9fad10ab3e64736f6c63430008120033",
  "linkReferences": {},
  "deployedLinkReferences": {}
}