{
  "_format": "hh-sol-artifact-1",
  "contractName": "UPIRamp",
  "sourceName": "contracts/Ramp.sol",
  "abi": [
    {
      "inputs": [
        {
          "internalType": "address",
          "name": "_owner",
          "type": "address"
        },
        {
          "internalType": "contract IERC20",
          "name": "_usdc",
          "type": "address"
        },
        {
          "internalType": "contract IPoseidon3",
          "name": "_poseidon3",
          "type": "address"
        },
        {
          "internalType": "contract IPoseidon6",
          "name": "_poseidon6",
          "type": "address"
        },
        {
          "internalType": "uint256",
          "name": "_minDepositAmount",
          "type": "uint256"
        },
        {
          "internalType": "uint256",
          "name": "_maxOnRampAmount",
          "type": "uint256"
        },
        {
          "internalType": "uint256",
          "name": "_intentExpirationPeriod",
          "type": "uint256"
        },
        {
          "internalType": "uint256",
          "name": "_onRampCooldownPeriod",
          "type": "uint256"
        },
        {
          "internalType": "uint256",
          "name": "_sustainabilityFee",
          "type": "uint256"
        },
        {
          "internalType": "address",
          "name": "_sustainabilityFeeRecipient",
          "type": "address"
        }
      ],
      "stateMutability": "nonpayable",
      "type": "constructor"
    },
    {
      "anonymous": false,
      "inputs": [
        {
          "indexed": true,
          "internalType": "address",
          "name": "previousOwner",
          "type": "address"
        },
        {
          "indexed": true,
          "internalType": "address",
          "name": "newOwner",
          "type": "address"
        }
      ],
      "name": "OwnershipTransferred",
      "type": "event"
    },
    {
      "inputs": [],
      "name": "depositCounter",
      "outputs": [
        {
          "internalType": "uint256",
          "name": "",
          "type": "uint256"
        }
      ],
      "stateMutability": "view",
      "type": "function"
    },
    {
      "inputs": [
        {
          "internalType": "uint256",
          "name": "",
          "type": "uint256"
        }
      ],
      "name": "deposits",
      "outputs": [
        {
          "internalType": "address",
          "name": "depositor",
          "type": "address"
        },
        {
          "internalType": "string",
          "name": "upiId",
          "type": "string"
        },
        {
          "internalType": "uint256",
          "name": "depositAmount",
          "type": "uint256"
        },
        {
          "internalType": "uint256",
          "name": "remainingDeposits",
          "type": "uint256"
        },
        {
          "internalType": "uint256",
          "name": "outstandingIntentAmount",
          "type": "uint256"
        },
        {
          "internalType": "uint256",
          "name": "conversionRate",
          "type": "uint256"
        }
      ],
      "stateMutability": "view",
      "type": "function"
    },
    {
      "inputs": [
        {
          "internalType": "address",
          "name": "_account",
          "type": "address"
        }
      ],
      "name": "getAccountInfo",
      "outputs": [
        {
          "components": [
            {
              "internalType": "bytes32",
              "name": "idHash",
              "type": "bytes32"
            },
            {
              "internalType": "uint256[]",
              "name": "deposits",
              "type": "uint256[]"
            }
          ],
          "internalType": "struct UPIRamp.AccountInfo",
          "name": "",
          "type": "tuple"
        }
      ],
      "stateMutability": "view",
      "type": "function"
    },
    {
      "inputs": [
        {
          "internalType": "uint256",
          "name": "_amount",
          "type": "uint256"
        }
      ],
      "name": "getBestRate",
      "outputs": [
        {
          "internalType": "uint256",
          "name": "bestDepositId",
          "type": "uint256"
        },
        {
          "internalType": "uint256",
          "name": "bestRate",
          "type": "uint256"
        }
      ],
      "stateMutability": "view",
      "type": "function"
    },
    {
      "inputs": [
        {
          "internalType": "uint256",
          "name": "_depositId",
          "type": "uint256"
        }
      ],
      "name": "getDeposit",
      "outputs": [
        {
          "components": [
            {
              "internalType": "address",
              "name": "depositor",
              "type": "address"
            },
            {
              "internalType": "string",
              "name": "upiId",
              "type": "string"
            },
            {
              "internalType": "uint256",
              "name": "depositAmount",
              "type": "uint256"
            },
            {
              "internalType": "uint256",
              "name": "remainingDeposits",
              "type": "uint256"
            },
            {
              "internalType": "uint256",
              "name": "outstandingIntentAmount",
              "type": "uint256"
            },
            {
              "internalType": "uint256",
              "name": "conversionRate",
              "type": "uint256"
            },
            {
              "internalType": "bytes32[]",
              "name": "intentHashes",
              "type": "bytes32[]"
            }
          ],
          "internalType": "struct UPIRamp.Deposit",
          "name": "",
          "type": "tuple"
        }
      ],
      "stateMutability": "view",
      "type": "function"
    },
    {
      "inputs": [
        {
          "internalType": "uint256[]",
          "name": "_depositIds",
          "type": "uint256[]"
        }
      ],
      "name": "getDepositFromIds",
      "outputs": [
        {
          "components": [
            {
              "internalType": "uint256",
              "name": "depositId",
              "type": "uint256"
            },
            {
              "components": [
                {
                  "internalType": "address",
                  "name": "depositor",
                  "type": "address"
                },
                {
                  "internalType": "string",
                  "name": "upiId",
                  "type": "string"
                },
                {
                  "internalType": "uint256",
                  "name": "depositAmount",
                  "type": "uint256"
                },
                {
                  "internalType": "uint256",
                  "name": "remainingDeposits",
                  "type": "uint256"
                },
                {
                  "internalType": "uint256",
                  "name": "outstandingIntentAmount",
                  "type": "uint256"
                },
                {
                  "internalType": "uint256",
                  "name": "conversionRate",
                  "type": "uint256"
                },
                {
                  "internalType": "bytes32[]",
                  "name": "intentHashes",
                  "type": "bytes32[]"
                }
              ],
              "internalType": "struct UPIRamp.Deposit",
              "name": "deposit",
              "type": "tuple"
            },
            {
              "internalType": "uint256",
              "name": "availableLiquidity",
              "type": "uint256"
            }
          ],
          "internalType": "struct UPIRamp.DepositWithAvailableLiquidity[]",
          "name": "depositArray",
          "type": "tuple[]"
        }
      ],
      "stateMutability": "view",
      "type": "function"
    },
    {
      "inputs": [
        {
          "internalType": "address",
          "name": "_account",
          "type": "address"
        }
      ],
      "name": "getIdCurrentIntentHash",
      "outputs": [
        {
          "internalType": "bytes32",
          "name": "",
          "type": "bytes32"
        }
      ],
      "stateMutability": "view",
      "type": "function"
    },
    {
      "inputs": [
        {
          "internalType": "address",
          "name": "_account",
          "type": "address"
        }
      ],
      "name": "getLastOnRampTimestamp",
      "outputs": [
        {
          "internalType": "uint256",
          "name": "",
          "type": "uint256"
        }
      ],
      "stateMutability": "view",
      "type": "function"
    },
    {
      "inputs": [
        {
          "internalType": "contract IRegistrationProcessor",
          "name": "_registrationProcessor",
          "type": "address"
        },
        {
          "internalType": "contract IUPISendProcessor",
          "name": "_sendProcessor",
          "type": "address"
        }
      ],
      "name": "initialize",
      "outputs": [],
      "stateMutability": "nonpayable",
      "type": "function"
    },
    {
      "inputs": [],
      "name": "intentExpirationPeriod",
      "outputs": [
        {
          "internalType": "uint256",
          "name": "",
          "type": "uint256"
        }
      ],
      "stateMutability": "view",
      "type": "function"
    },
    {
      "inputs": [
        {
          "internalType": "bytes32",
          "name": "",
          "type": "bytes32"
        }
      ],
      "name": "intents",
      "outputs": [
        {
          "internalType": "address",
          "name": "onRamper",
          "type": "address"
        },
        {
          "internalType": "address",
          "name": "to",
          "type": "address"
        },
        {
          "internalType": "uint256",
          "name": "deposit",
          "type": "uint256"
        },
        {
          "internalType": "uint256",
          "name": "amount",
          "type": "uint256"
        },
        {
          "internalType": "uint256",
          "name": "intentTimestamp",
          "type": "uint256"
        }
      ],
      "stateMutability": "view",
      "type": "function"
    },
    {
      "inputs": [],
      "name": "maxOnRampAmount",
      "outputs": [
        {
          "internalType": "uint256",
          "name": "",
          "type": "uint256"
        }
      ],
      "stateMutability": "view",
      "type": "function"
    },
    {
      "inputs": [],
      "name": "minDepositAmount",
      "outputs": [
        {
          "internalType": "uint256",
          "name": "",
          "type": "uint256"
        }
      ],
      "stateMutability": "view",
      "type": "function"
    },
    {
      "inputs": [
        {
          "internalType": "string",
          "name": "_upiId",
          "type": "string"
        },
        {
          "internalType": "uint256",
          "name": "_depositAmount",
          "type": "uint256"
        },
        {
          "internalType": "uint256",
          "name": "_receiveAmount",
          "type": "uint256"
        }
      ],
      "name": "offRamp",
      "outputs": [],
      "stateMutability": "nonpayable",
      "type": "function"
    },
    {
      "inputs": [
        {
          "internalType": "uint256[2]",
          "name": "_a",
          "type": "uint256[2]"
        },
        {
          "internalType": "uint256[2][2]",
          "name": "_b",
          "type": "uint256[2][2]"
        },
        {
          "internalType": "uint256[2]",
          "name": "_c",
          "type": "uint256[2]"
        },
        {
          "internalType": "uint256[3]",
          "name": "_signals",
          "type": "uint256[3]"
        }
      ],
      "name": "onRamp",
      "outputs": [],
      "stateMutability": "nonpayable",
      "type": "function"
    },
    {
      "inputs": [],
      "name": "onRampCooldownPeriod",
      "outputs": [
        {
          "internalType": "uint256",
          "name": "",
          "type": "uint256"
        }
      ],
      "stateMutability": "view",
      "type": "function"
    },
    {
      "inputs": [],
      "name": "owner",
      "outputs": [
        {
          "internalType": "address",
          "name": "",
          "type": "address"
        }
      ],
      "stateMutability": "view",
      "type": "function"
    },
    {
      "inputs": [],
      "name": "poseidon3",
      "outputs": [
        {
          "internalType": "contract IPoseidon3",
          "name": "",
          "type": "address"
        }
      ],
      "stateMutability": "view",
      "type": "function"
    },
    {
      "inputs": [],
      "name": "poseidon6",
      "outputs": [
        {
          "internalType": "contract IPoseidon6",
          "name": "",
          "type": "address"
        }
      ],
      "stateMutability": "view",
      "type": "function"
    },
    {
      "inputs": [
        {
          "internalType": "uint256[2]",
          "name": "_a",
          "type": "uint256[2]"
        },
        {
          "internalType": "uint256[2][2]",
          "name": "_b",
          "type": "uint256[2][2]"
        },
        {
          "internalType": "uint256[2]",
          "name": "_c",
          "type": "uint256[2]"
        },
        {
          "internalType": "uint256[1]",
          "name": "_signals",
          "type": "uint256[1]"
        }
      ],
      "name": "register",
      "outputs": [],
      "stateMutability": "nonpayable",
      "type": "function"
    },
    {
      "inputs": [
        {
          "internalType": "string",
          "name": "_idHash",
          "type": "string"
        }
      ],
      "name": "registerWithoutProof",
      "outputs": [],
      "stateMutability": "nonpayable",
      "type": "function"
    },
    {
      "inputs": [],
      "name": "registrationProcessor",
      "outputs": [
        {
          "internalType": "contract IRegistrationProcessor",
          "name": "",
          "type": "address"
        }
      ],
      "stateMutability": "view",
      "type": "function"
    },
    {
      "inputs": [],
      "name": "renounceOwnership",
      "outputs": [],
      "stateMutability": "nonpayable",
      "type": "function"
    },
    {
      "inputs": [],
      "name": "sendProcessor",
      "outputs": [
        {
          "internalType": "contract IUPISendProcessor",
          "name": "",
          "type": "address"
        }
      ],
      "stateMutability": "view",
      "type": "function"
    },
    {
      "inputs": [
        {
          "internalType": "uint256",
          "name": "_maxOnRampAmount",
          "type": "uint256"
        }
      ],
      "name": "setMaxOnRampAmount",
      "outputs": [],
      "stateMutability": "nonpayable",
      "type": "function"
    },
    {
      "inputs": [
        {
          "internalType": "contract IRegistrationProcessor",
          "name": "_registrationProcessor",
          "type": "address"
        }
      ],
      "name": "setRegistrationProcessor",
      "outputs": [],
      "stateMutability": "nonpayable",
      "type": "function"
    },
    {
      "inputs": [
        {
          "internalType": "contract IUPISendProcessor",
          "name": "_sendProcessor",
          "type": "address"
        }
      ],
      "name": "setSendProcessor",
      "outputs": [],
      "stateMutability": "nonpayable",
      "type": "function"
    },
    {
      "inputs": [
        {
          "internalType": "uint256",
          "name": "_depositId",
          "type": "uint256"
        },
        {
          "internalType": "uint256",
          "name": "_amount",
          "type": "uint256"
        },
        {
          "internalType": "address",
          "name": "_to",
          "type": "address"
        }
      ],
      "name": "signalIntent",
      "outputs": [],
      "stateMutability": "nonpayable",
      "type": "function"
    },
    {
      "inputs": [],
      "name": "sustainabilityFee",
      "outputs": [
        {
          "internalType": "uint256",
          "name": "",
          "type": "uint256"
        }
      ],
      "stateMutability": "view",
      "type": "function"
    },
    {
      "inputs": [],
      "name": "sustainabilityFeeRecipient",
      "outputs": [
        {
          "internalType": "address",
          "name": "",
          "type": "address"
        }
      ],
      "stateMutability": "view",
      "type": "function"
    },
    {
      "inputs": [
        {
          "internalType": "address",
          "name": "newOwner",
          "type": "address"
        }
      ],
      "name": "transferOwnership",
      "outputs": [],
      "stateMutability": "nonpayable",
      "type": "function"
    },
    {
      "inputs": [],
      "name": "usdc",
      "outputs": [
        {
          "internalType": "contract IERC20",
          "name": "",
          "type": "address"
        }
      ],
      "stateMutability": "view",
      "type": "function"
    }
  ],
  "bytecode": "0x60e06040523480156200001157600080fd5b5060405162003116380380620031168339810160408190526200003491620001eb565b6200003f33620000a4565b6001600160a01b0389811660805288811660a05287811660c05260078790556008869055600a8590556009849055600b839055600c80546001600160a01b031916918316919091179055620000948a620000f4565b505050505050505050506200029e565b600080546001600160a01b038381166001600160a01b0319831681178455604051919092169283917f8be0079c531659141344cd1fd0a4f28419497f9722a3daafe3b4186f6b6457e09190a35050565b620000fe62000177565b6001600160a01b038116620001695760405162461bcd60e51b815260206004820152602660248201527f4f776e61626c653a206e6577206f776e657220697320746865207a65726f206160448201526564647265737360d01b60648201526084015b60405180910390fd5b6200017481620000a4565b50565b6000546001600160a01b03163314620001d35760405162461bcd60e51b815260206004820181905260248201527f4f776e61626c653a2063616c6c6572206973206e6f7420746865206f776e6572604482015260640162000160565b565b6001600160a01b03811681146200017457600080fd5b6000806000806000806000806000806101408b8d0312156200020c57600080fd5b8a516200021981620001d5565b60208c0151909a506200022c81620001d5565b60408c01519099506200023f81620001d5565b60608c01519098506200025281620001d5565b8097505060808b0151955060a08b0151945060c08b0151935060e08b015192506101008b015191506101208b01516200028b81620001d5565b809150509295989b9194979a5092959850565b60805160a05160c051612e33620002e3600039600061030e015260006104e201526000818161036001528181610a2d01528181611a8a0152611b390152612e336000f3fe608060405234801561001057600080fd5b50600436106101f05760003560e01c806371a28f691161010f578063cce3e038116100a2578063ecb3dc8811610071578063ecb3dc8814610533578063ed1692b81461053c578063eea1d1971461054f578063f2fde38b1461056257600080fd5b8063cce3e038146104dd578063d9478d2014610504578063e215ad5914610517578063e279d9641461052a57600080fd5b80639087beff116100de5780639087beff1461047c5780639f9fb9681461048f578063a1a954b7146104af578063b02c43d0146104b857600080fd5b806371a28f69146103af5780637b510fe8146103cf5780638da5cb5b146103ef5780639021578a1461040057600080fd5b806337fbdf6d11610187578063485cc95511610156578063485cc95514610382578063495223e714610395578063645006ca1461039e578063715018a6146103a757600080fd5b806337fbdf6d146102f65780633930a439146103095780633adba28a146103485780633e413bee1461035b57600080fd5b8063238c8494116101c3578063238c84941461029f57806327c6e693146102a8578063314a61c5146102d057806336a175ef146102e357600080fd5b80630d4c3ad9146101f55780630f1ef98c1461020a578063133de6cb1461025657806314ec32fa14610269575b600080fd5b610208610203366004612433565b610575565b005b610243610218366004612500565b6001600160a01b03166000908152600460209081526040808320548352600390915290206001015490565b6040519081526020015b60405180910390f35b610208610264366004612500565b610602565b610243610277366004612500565b6001600160a01b03166000908152600460209081526040808320548352600390915290205490565b610243600b5481565b6102bb6102b6366004612524565b61062c565b6040805192835260208301919091520161024d565b6102086102de36600461253d565b6106bb565b6102086102f1366004612665565b610716565b61020861030436600461269a565b61075f565b6103307f000000000000000000000000000000000000000000000000000000000000000081565b6040516001600160a01b03909116815260200161024d565b6102086103563660046126e8565b610aa3565b6103307f000000000000000000000000000000000000000000000000000000000000000081565b610208610390366004612721565b610fda565b61024360095481565b61024360075481565b61020861106d565b6103c26103bd36600461275a565b611081565b60405161024d91906128e4565b6103e26103dd366004612500565b6112b9565b60405161024d9190612965565b6000546001600160a01b0316610330565b61044961040e366004612524565b600660205260009081526040902080546001820154600283015460038401546004909401546001600160a01b03938416949390921692909185565b604080516001600160a01b039687168152959094166020860152928401919091526060830152608082015260a00161024d565b61020861048a366004612524565b611353565b6104a261049d366004612524565b6113ba565b60405161024d91906129af565b610243600a5481565b6104cb6104c6366004612524565b611505565b60405161024d969594939291906129c2565b6103307f000000000000000000000000000000000000000000000000000000000000000081565b600c54610330906001600160a01b031681565b600154610330906001600160a01b031681565b61024360085481565b610243600d5481565b61020861054a366004612500565b6115cc565b600254610330906001600160a01b031681565b610208610570366004612500565b6115f6565b60008060006105868787878761166f565b92509250925061059682826118de565b82606001518260040160008282546105ae9190612a21565b909155505082516001600160a01b03166000908152600460209081526040808320548352600390915290819020426001909101558301516105ef9083611986565b6105f98184611a2d565b50505050505050565b61060a611ba6565b600280546001600160a01b0319166001600160a01b0392909216919091179055565b600080805260056020527f05b8ccbb9d4d8fb16ea74ce3c29a41f1b461fbdaff4714a0d9a8eb05499746c15460015b600d548110156106b55760008181526005602081905260409091200154828111801561069857506000828152600560205260409020600301548511155b156106a4578193508092505b506106ae81612a3a565b905061065b565b50915091565b33600090815260046020526040902054156106f15760405162461bcd60e51b81526004016106e890612a53565b60405180910390fd5b60006106ff85858585611c00565b336000908152600460205260409020555050505050565b33600090815260046020526040902054156107435760405162461bcd60e51b81526004016106e890612a53565b61074c81611c9e565b3360009081526004602052604090205550565b336000908152600460205260409020546107bb5760405162461bcd60e51b815260206004820152601e60248201527f43616c6c6572206d75737420626520726567697374657265642075736572000060448201526064016106e8565b3360009081526004602052604090206001015460051161081d5760405162461bcd60e51b815260206004820152601e60248201527f4d6178696d756d206465706f73697420616d6f756e742072656163686564000060448201526064016106e8565b60075482101561088e5760405162461bcd60e51b815260206004820152603660248201527f4465706f73697420616d6f756e74206d757374206265206772656174657220746044820152751a185b881b5a5b8819195c1bdcda5d08185b5bdd5b9d60521b60648201526084016106e8565b600081116108ec5760405162461bcd60e51b815260206004820152602560248201527f5265636569766520616d6f756e74206d75737420626520677265617465722074604482015264068616e20360dc1b60648201526084016106e8565b600081610901670de0b6b3a764000085612a99565b61090b9190612ac6565b600d8054919250600091908261092083612a3a565b9091555033600081815260046020908152604080832060018082018054808301825590865284862001879055825160e0810184529586528584018c81528684018c9052606087018c90526080870186905260a087018a90528351868152808601855260c0880152878652600590945291909320845181546001600160a01b0319166001600160a01b039091161781559151949550919390918201906109c59082612b5c565b5060408201516002820155606082015160038201556080820151600482015560a0820151600582015560c08201518051610a09916006840191602090910190612203565b50506040516323b872dd60e01b8152336004820152306024820152604481018790527f00000000000000000000000000000000000000000000000000000000000000006001600160a01b031691506323b872dd906064016020604051808303816000875af1158015610a7f573d6000803e3d6000fd5b505050506040513d601f19601f820116820180604052508101906105f99190612c1c565b33600090815260046020526040902054610aff5760405162461bcd60e51b815260206004820152601e60248201527f43616c6c6572206d75737420626520726567697374657265642075736572000060448201526064016106e8565b336000908152600460208181526040808420548785526005835281852080546001600160a01b031686529383528185205480865260038085528387208388520190935293205460ff1615610b955760405162461bcd60e51b815260206004820181905260248201527f4f6e72616d706572206f6e206465706f7369746f7227732064656e796c69737460448201526064016106e8565b6009546000848152600360205260409020600101544291610bb591612c3e565b1115610c0f5760405162461bcd60e51b8152602060048201526024808201527f4f6e2072616d7020636f6f6c20646f776e20706572696f64206e6f7420656c616044820152631c1cd95960e21b60648201526084016106e8565b60008381526003602052604090205415610c6b5760405162461bcd60e51b815260206004820152601860248201527f496e74656e74207374696c6c206f75747374616e64696e67000000000000000060448201526064016106e8565b828103610cba5760405162461bcd60e51b815260206004820152601e60248201527f53656e6465722063616e6e6f7420626520746865206465706f7369746f72000060448201526064016106e8565b81546001600160a01b0316610d0a5760405162461bcd60e51b815260206004820152601660248201527511195c1bdcda5d08191bd95cc81b9bdd08195e1a5cdd60521b60448201526064016106e8565b60008511610d695760405162461bcd60e51b815260206004820152602660248201527f5369676e616c656420616d6f756e74206d75737420626520677265617465722060448201526507468616e20360d41b60648201526084016106e8565b600854851115610dd85760405162461bcd60e51b815260206004820152603460248201527f5369676e616c656420616d6f756e74206d757374206265206c657373207468616044820152731b881b585e081bdb8b5c985b5c08185b5bdd5b9d60621b60648201526084016106e8565b6001600160a01b038416610e2e5760405162461bcd60e51b815260206004820152601b60248201527f43616e6e6f742073656e6420746f207a65726f2061646472657373000000000060448201526064016106e8565b6000610e3a8488611cbd565b90508583600301541015610eef57600080610e5489611d28565b9150915087818660030154610e699190612c3e565b1015610eae5760405162461bcd60e51b81526020600482015260146024820152734e6f7420656e6f756768206c697175696469747960601b60448201526064016106e8565b610eb88583611ed0565b80856003016000828254610ecc9190612c3e565b9250508190555080856004016000828254610ee79190612a21565b909155505050505b6040805160a0810182523381526001600160a01b0387811660208084019182528385018c8152606085018c81524260808701908152600089815260068552888120975188549088166001600160a01b031991821617895595516001890180549190981696169590951790955590516002860155516003808601919091559251600490940193909355878152918190529181208390559084018054889290610f97908490612a21565b9250508190555085836004016000828254610fb29190612c3e565b9091555050600690920180546001810182556000918252602090912001919091555050505050565b610fe2611ba6565b600254600160a01b900460ff16156110325760405162461bcd60e51b8152602060048201526013602482015272105b1c9958591e481a5b9a5d1a585b1a5e9959606a1b60448201526064016106e8565b600180546001600160a01b039384166001600160a01b0319909116179055600280546001600160a81b0319169190921617600160a01b179055565b611075611ba6565b61107f6000611f32565b565b6060815167ffffffffffffffff81111561109d5761109d612324565b6040519080825280602002602001820160405280156110d657816020015b6110c361224e565b8152602001906001900390816110bb5790505b50905060005b82518110156112b35760008382815181106110f9576110f9612c51565b6020908102919091018101516000818152600583526040808220815160e0810190925280546001600160a01b03168252600181018054949650929491939092918401919061114690612ada565b80601f016020809104026020016040519081016040528092919081815260200182805461117290612ada565b80156111bf5780601f10611194576101008083540402835291602001916111bf565b820191906000526020600020905b8154815290600101906020018083116111a257829003601f168201915b50505050508152602001600282015481526020016003820154815260200160048201548152602001600582015481526020016006820180548060200260200160405190810160405280929190818152602001828054801561123f57602002820191906000526020600020905b81548152602001906001019080831161122b575b5050505050815250509050600061125583611d28565b915050604051806060016040528084815260200183815260200182846060015161127f9190612c3e565b81525085858151811061129457611294612c51565b6020026020010181905250505050806112ac90612a3a565b90506110dc565b50919050565b6040805180820190915260008152606060208201526001600160a01b03821660009081526004602090815260409182902082518084018452815481526001820180548551818602810186019096528086529194929385810193929083018282801561134357602002820191906000526020600020905b81548152602001906001019080831161132f575b5050505050815250509050919050565b61135b611ba6565b806000036113b55760405162461bcd60e51b815260206004820152602160248201527f4d6178206f6e2072616d7020616d6f756e742063616e6e6f74206265207a65726044820152606f60f81b60648201526084016106e8565b600855565b6113c2612275565b600082815260056020908152604091829020825160e0810190935280546001600160a01b0316835260018101805491928401916113fe90612ada565b80601f016020809104026020016040519081016040528092919081815260200182805461142a90612ada565b80156114775780601f1061144c57610100808354040283529160200191611477565b820191906000526020600020905b81548152906001019060200180831161145a57829003601f168201915b505050505081526020016002820154815260200160038201548152602001600482015481526020016005820154815260200160068201805480602002602001604051908101604052809291908181526020018280548015611343576020028201919060005260206000209081548152602001906001019080831161132f575050505050815250509050919050565b600560205260009081526040902080546001820180546001600160a01b03909216929161153190612ada565b80601f016020809104026020016040519081016040528092919081815260200182805461155d90612ada565b80156115aa5780601f1061157f576101008083540402835291602001916115aa565b820191906000526020600020905b81548152906001019060200180831161158d57829003601f168201915b5050505050908060020154908060030154908060040154908060050154905086565b6115d4611ba6565b600180546001600160a01b0319166001600160a01b0392909216919091179055565b6115fe611ba6565b6001600160a01b0381166116635760405162461bcd60e51b815260206004820152602660248201527f4f776e61626c653a206e6577206f776e657220697320746865207a65726f206160448201526564647265737360d01b60648201526084016106e8565b61166c81611f32565b50565b6116b36040518060a0016040528060006001600160a01b0316815260200160006001600160a01b031681526020016000815260200160008152602001600081525090565b60025460408051608081018252878152602081018790528082018690526060810185905290516345452acd60e01b815260009283928392839283926001600160a01b03909116916345452acd9161170c91600401612cb8565b6060604051808303816000875af115801561172b573d6000803e3d6000fd5b505050506040513d601f19601f8201168201806040525081019061174f9190612d27565b6000818152600660209081526040808320815160a08101835281546001600160a01b039081168252600183015481168286015260028301548285018190526003840154606084015260049093015460808301529185526005909352922081519598509396509194509092166117fe5760405162461bcd60e51b8152602060048201526015602482015274125b9d195b9d08191bd95cc81b9bdd08195e1a5cdd605a1b60448201526064016106e8565b838260800151111561185d5760405162461bcd60e51b815260206004820152602260248201527f496e74656e7420776173206e6f742063726561746564206265666f72652073656044820152611b9960f21b60648201526084016106e8565b8060050154670de0b6b3a7640000836060015161187a9190612a99565b6118849190612ac6565b8510156118cc5760405162461bcd60e51b81526020600482015260166024820152750a0c2f2dacadce840eec2e640dcdee840cadcdeeaced60531b60448201526064016106e8565b909b909a509098509650505050505050565b6000818152600660208181526040808420815160a08101835281546001600160a01b039081168083526001840180549092168387015260028401805484870152600380860180546060870152600480880180546080890152948c528952878b20548b529088529589208990558989529587905283546001600160a01b03199081169094558154909316905592859055908490559290925561198190840183611f82565b505050565b60008160030154826004015461199c9190612c3e565b9050806000036119815781546001600160a01b031660009081526004602052604090206119cc90600101846120ab565b600083815260056020526040812080546001600160a01b0319168155906119f660018301826122bb565b6002820160009055600382016000905560048201600090556005820160009055600682016000611a2691906122f5565b5050505050565b6000600b54600014611af957670de0b6b3a7640000600b548360600151611a549190612a99565b611a5e9190612ac6565b600c5460405163a9059cbb60e01b81526001600160a01b039182166004820152602481018390529192507f0000000000000000000000000000000000000000000000000000000000000000169063a9059cbb906044016020604051808303816000875af1158015611ad3573d6000803e3d6000fd5b505050506040513d601f19601f82011682018060405250810190611af79190612c1c565b505b6000818360600151611b0b9190612a21565b602084015160405163a9059cbb60e01b81526001600160a01b039182166004820152602481018390529192507f0000000000000000000000000000000000000000000000000000000000000000169063a9059cbb906044016020604051808303816000875af1158015611b82573d6000803e3d6000fd5b505050506040513d601f19601f82011682018060405250810190611a269190612c1c565b6000546001600160a01b0316331461107f5760405162461bcd60e51b815260206004820181905260248201527f4f776e61626c653a2063616c6c6572206973206e6f7420746865206f776e657260448201526064016106e8565b6001546040805160808101825286815260208101869052808201859052606081018490529051637bff11bf60e11b815260009283926001600160a01b039091169163f7fe237e91611c5391600401612d55565b602060405180830381865afa158015611c70573d6000803e3d6000fd5b505050506040513d601f19601f82011682018060405250810190611c949190612dba565b9695505050505050565b805160009082908203611cb45750600092915050565b50506020015190565b6040805160208101849052908101829052426060820152600090819060800160408051601f1981840301815291905280516020909101209050611d207f30644e72e131a029b85045b68181585d2833e84879b9709143e1f593f000000182612dd3565b949350505050565b60008181526005602090815260408083206006018054825181850281018501909352808352606094938493929190830182828015611d8557602002820191906000526020600020905b815481526020019060010190808311611d71575b50505050509050805167ffffffffffffffff811115611da657611da6612324565b604051908082528060200260200182016040528015611dcf578160200160208202803683370190505b50925060005b8151811015611ec957600060066000848481518110611df657611df6612c51565b6020908102919091018101518252818101929092526040908101600020815160a08101835281546001600160a01b03908116825260018301541693810193909352600281015491830191909152600381015460608301526004015460808201819052600a549192504291611e6991612c3e565b1015611eb857828281518110611e8157611e81612c51565b6020026020010151858381518110611e9b57611e9b612c51565b60209081029190910101526060810151611eb59085612c3e565b93505b50611ec281612a3a565b9050611dd5565b5050915091565b60005b8151811015611981576000801b828281518110611ef257611ef2612c51565b602002602001015114611f2257611f2283838381518110611f1557611f15612c51565b60200260200101516118de565b611f2b81612a3a565b9050611ed3565b600080546001600160a01b038381166001600160a01b0319831681178455604051919092169283917f8be0079c531659141344cd1fd0a4f28419497f9722a3daafe3b4186f6b6457e09190a35050565b600080611fde84805480602002602001604051908101604052809291908181526020018280548015611fd357602002820191906000526020600020905b815481526020019060010190808311611fbf575b505050505084612150565b91509150806120275760405162461bcd60e51b8152602060048201526015602482015274313cba32b99999103737ba1034b71030b93930bc9760591b60448201526064016106e8565b835460009061203890600190612a21565b905080831461207d5784818154811061205357612053612c51565b906000526020600020015485848154811061207057612070612c51565b6000918252602090912001555b8480548061208d5761208d612de7565b60019003818190600052602060002001600090559055505b50505050565b600080612107848054806020026020016040519081016040528092919081815260200182805480156120fc57602002820191906000526020600020905b8154815260200190600101908083116120e8575b5050505050846121b3565b91509150806120275760405162461bcd60e51b81526020600482015260156024820152743ab4b73a191a9b103737ba1034b71030b93930bc9760591b60448201526064016106e8565b81516000908190815b818110156121a0578486828151811061217457612174612c51565b60200260200101510361218e579250600191506121ac9050565b8061219881612a3a565b915050612159565b50600019600092509250505b9250929050565b81516000908190815b818110156121a057848682815181106121d7576121d7612c51565b6020026020010151036121f1579250600191506121ac9050565b806121fb81612a3a565b9150506121bc565b82805482825590600052602060002090810192821561223e579160200282015b8281111561223e578251825591602001919060010190612223565b5061224a92915061230f565b5090565b604051806060016040528060008152602001612268612275565b8152602001600081525090565b6040518060e0016040528060006001600160a01b031681526020016060815260200160008152602001600081526020016000815260200160008152602001606081525090565b5080546122c790612ada565b6000825580601f106122d7575050565b601f01602090049060005260206000209081019061166c919061230f565b508054600082559060005260206000209081019061166c91905b5b8082111561224a5760008155600101612310565b634e487b7160e01b600052604160045260246000fd5b6040805190810167ffffffffffffffff8111828210171561235d5761235d612324565b60405290565b604051601f8201601f1916810167ffffffffffffffff8111828210171561238c5761238c612324565b604052919050565b600082601f8301126123a557600080fd5b6123ad61233a565b8060408401858111156123bf57600080fd5b845b818110156123d95780358452602093840193016123c1565b509095945050505050565b600082601f8301126123f557600080fd5b6123fd61233a565b80608084018581111561240f57600080fd5b845b818110156123d9576124238782612394565b8452602090930192604001612411565b60008060008061016080868803121561244b57600080fd5b6124558787612394565b945061246487604088016123e4565b93506124738760c08801612394565b92508661011f87011261248557600080fd5b6040516060810181811067ffffffffffffffff821117156124a8576124a8612324565b6040529086019080888311156124bd57600080fd5b61010088015b838110156124db5780358252602091820191016124c3565b5050809250505092959194509250565b6001600160a01b038116811461166c57600080fd5b60006020828403121561251257600080fd5b813561251d816124eb565b9392505050565b60006020828403121561253657600080fd5b5035919050565b60008060008061012080868803121561255557600080fd5b61255f8787612394565b945061256e87604088016123e4565b935061257d8760c08801612394565b92508661011f87011261258f57600080fd5b604051602080820182811067ffffffffffffffff821117156125b3576125b3612324565b6040529187019181898411156125c857600080fd5b61010089015b848110156125e557803582529082019082016125ce565b5096999598509396509450505050565b600082601f83011261260657600080fd5b813567ffffffffffffffff81111561262057612620612324565b612633601f8201601f1916602001612363565b81815284602083860101111561264857600080fd5b816020850160208301376000918101602001919091529392505050565b60006020828403121561267757600080fd5b813567ffffffffffffffff81111561268e57600080fd5b611d20848285016125f5565b6000806000606084860312156126af57600080fd5b833567ffffffffffffffff8111156126c657600080fd5b6126d2868287016125f5565b9660208601359650604090950135949350505050565b6000806000606084860312156126fd57600080fd5b83359250602084013591506040840135612716816124eb565b809150509250925092565b6000806040838503121561273457600080fd5b823561273f816124eb565b9150602083013561274f816124eb565b809150509250929050565b6000602080838503121561276d57600080fd5b823567ffffffffffffffff8082111561278557600080fd5b818501915085601f83011261279957600080fd5b8135818111156127ab576127ab612324565b8060051b91506127bc848301612363565b81815291830184019184810190888411156127d657600080fd5b938501935b838510156127f4578435825293850193908501906127db565b98975050505050505050565b6000815180845260005b818110156128265760208185018101518683018201520161280a565b506000602082860101526020601f19601f83011685010191505092915050565b60018060a01b038151168252600060208083015160e08286015261286d60e0860182612800565b905060408401516040860152606084015160608601526080840151608086015260a084015160a086015260c084015185820360c087015281815180845284840191508483019350600092505b808310156128d957835182529284019260019290920191908401906128b9565b509695505050505050565b60006020808301818452808551808352604092508286019150828160051b87010184880160005b8381101561295757603f19898403018552815160608151855288820151818a87015261293982870182612846565b9289015195890195909552509487019492509086019060010161290b565b509098975050505050505050565b602080825282518282015282810151604080840152805160608401819052600092918201908390608086019080156128d957835182529284019260019290920191908401906128b9565b60208152600061251d6020830184612846565b6001600160a01b038716815260c0602082018190526000906129e690830188612800565b90508560408301528460608301528360808301528260a0830152979650505050505050565b634e487b7160e01b600052601160045260246000fd5b81810381811115612a3457612a34612a0b565b92915050565b600060018201612a4c57612a4c612a0b565b5060010190565b60208082526026908201527f4163636f756e7420616c7265616479206173736f6369617465642077697468206040820152650d2c890c2e6d60d31b606082015260800190565b8082028115828204841417612a3457612a34612a0b565b634e487b7160e01b600052601260045260246000fd5b600082612ad557612ad5612ab0565b500490565b600181811c90821680612aee57607f821691505b6020821081036112b357634e487b7160e01b600052602260045260246000fd5b601f82111561198157600081815260208120601f850160051c81016020861015612b355750805b601f850160051c820191505b81811015612b5457828155600101612b41565b505050505050565b815167ffffffffffffffff811115612b7657612b76612324565b612b8a81612b848454612ada565b84612b0e565b602080601f831160018114612bbf5760008415612ba75750858301515b600019600386901b1c1916600185901b178555612b54565b600085815260208120601f198616915b82811015612bee57888601518255948401946001909101908401612bcf565b5085821015612c0c5787850151600019600388901b60f8161c191681555b5050505050600190811b01905550565b600060208284031215612c2e57600080fd5b8151801515811461251d57600080fd5b80820180821115612a3457612a34612a0b565b634e487b7160e01b600052603260045260246000fd5b8060005b60028110156120a5578151845260209384019390910190600101612c6b565b8060005b60028110156120a557612ca2848351612c67565b6040939093019260209190910190600101612c8e565b600061016082019050612ccc828451612c67565b602080840151612cdf6040850182612c8a565b506040840151612cf260c0850182612c67565b506060840151610100840160005b6003811015612d1d57825182529183019190830190600101612d00565b5050505092915050565b600080600060608486031215612d3c57600080fd5b8351925060208401519150604084015190509250925092565b600061012082019050612d69828451612c67565b602080840151612d7c6040850182612c8a565b506040840151612d8f60c0850182612c67565b506060840151610100840160005b6001811015612d1d57825182529183019190830190600101612d9d565b600060208284031215612dcc57600080fd5b5051919050565b600082612de257612de2612ab0565b500690565b634e487b7160e01b600052603160045260246000fdfea2646970667358221220c84a98d77869040f2d647f44917226710b7d54b58972b364817977492d92180264736f6c63430008120033",
  "linkReferences": {},
  "deployedLinkReferences": {}
}