{
  "_format": "hh-sol-artifact-1",
  "contractName": "UPIRamp",
  "sourceName": "contracts/Ramp.sol",
  "abi": [
    {
      "inputs": [
        {
          "internalType": "address",
          "name": "_owner",
          "type": "address"
        },
        {
          "internalType": "contract IERC20",
          "name": "_usdc",
          "type": "address"
        },
        {
          "internalType": "contract IPoseidon3",
          "name": "_poseidon3",
          "type": "address"
        },
        {
          "internalType": "contract IPoseidon6",
          "name": "_poseidon6",
          "type": "address"
        },
        {
          "internalType": "uint256",
          "name": "_minDepositAmount",
          "type": "uint256"
        },
        {
          "internalType": "uint256",
          "name": "_maxOnRampAmount",
          "type": "uint256"
        },
        {
          "internalType": "uint256",
          "name": "_intentExpirationPeriod",
          "type": "uint256"
        },
        {
          "internalType": "uint256",
          "name": "_onRampCooldownPeriod",
          "type": "uint256"
        },
        {
          "internalType": "uint256",
          "name": "_sustainabilityFee",
          "type": "uint256"
        },
        {
          "internalType": "address",
          "name": "_sustainabilityFeeRecipient",
          "type": "address"
        }
      ],
      "stateMutability": "nonpayable",
      "type": "constructor"
    },
    {
      "anonymous": false,
      "inputs": [
        {
          "indexed": true,
          "internalType": "address",
          "name": "previousOwner",
          "type": "address"
        },
        {
          "indexed": true,
          "internalType": "address",
          "name": "newOwner",
          "type": "address"
        }
      ],
      "name": "OwnershipTransferred",
      "type": "event"
    },
    {
      "inputs": [],
      "name": "depositCounter",
      "outputs": [
        {
          "internalType": "uint256",
          "name": "",
          "type": "uint256"
        }
      ],
      "stateMutability": "view",
      "type": "function"
    },
    {
      "inputs": [
        {
          "internalType": "uint256",
          "name": "",
          "type": "uint256"
        }
      ],
      "name": "deposits",
      "outputs": [
        {
          "internalType": "address",
          "name": "depositor",
          "type": "address"
        },
        {
          "internalType": "string",
          "name": "upiId",
          "type": "string"
        },
        {
          "internalType": "uint256",
          "name": "depositAmount",
          "type": "uint256"
        },
        {
          "internalType": "uint256",
          "name": "remainingDeposits",
          "type": "uint256"
        },
        {
          "internalType": "uint256",
          "name": "outstandingIntentAmount",
          "type": "uint256"
        },
        {
          "internalType": "uint256",
          "name": "conversionRate",
          "type": "uint256"
        }
      ],
      "stateMutability": "view",
      "type": "function"
    },
    {
      "inputs": [
        {
          "internalType": "address",
          "name": "_account",
          "type": "address"
        }
      ],
      "name": "getAccountInfo",
      "outputs": [
        {
          "components": [
            {
              "internalType": "bytes32",
              "name": "idHash",
              "type": "bytes32"
            },
            {
              "internalType": "uint256[]",
              "name": "deposits",
              "type": "uint256[]"
            }
          ],
          "internalType": "struct UPIRamp.AccountInfo",
          "name": "",
          "type": "tuple"
        }
      ],
      "stateMutability": "view",
      "type": "function"
    },
    {
      "inputs": [
        {
          "internalType": "uint256",
          "name": "_amount",
          "type": "uint256"
        }
      ],
      "name": "getBestRate",
      "outputs": [
        {
          "internalType": "uint256",
          "name": "bestDepositId",
          "type": "uint256"
        },
        {
          "internalType": "uint256",
          "name": "bestRate",
          "type": "uint256"
        }
      ],
      "stateMutability": "view",
      "type": "function"
    },
    {
      "inputs": [
        {
          "internalType": "uint256",
          "name": "_depositId",
          "type": "uint256"
        }
      ],
      "name": "getDeposit",
      "outputs": [
        {
          "components": [
            {
              "internalType": "address",
              "name": "depositor",
              "type": "address"
            },
            {
              "internalType": "string",
              "name": "upiId",
              "type": "string"
            },
            {
              "internalType": "uint256",
              "name": "depositAmount",
              "type": "uint256"
            },
            {
              "internalType": "uint256",
              "name": "remainingDeposits",
              "type": "uint256"
            },
            {
              "internalType": "uint256",
              "name": "outstandingIntentAmount",
              "type": "uint256"
            },
            {
              "internalType": "uint256",
              "name": "conversionRate",
              "type": "uint256"
            },
            {
              "internalType": "bytes32[]",
              "name": "intentHashes",
              "type": "bytes32[]"
            }
          ],
          "internalType": "struct UPIRamp.Deposit",
          "name": "",
          "type": "tuple"
        }
      ],
      "stateMutability": "view",
      "type": "function"
    },
    {
      "inputs": [
        {
          "internalType": "uint256[]",
          "name": "_depositIds",
          "type": "uint256[]"
        }
      ],
      "name": "getDepositFromIds",
      "outputs": [
        {
          "components": [
            {
              "internalType": "uint256",
              "name": "depositId",
              "type": "uint256"
            },
            {
              "components": [
                {
                  "internalType": "address",
                  "name": "depositor",
                  "type": "address"
                },
                {
                  "internalType": "string",
                  "name": "upiId",
                  "type": "string"
                },
                {
                  "internalType": "uint256",
                  "name": "depositAmount",
                  "type": "uint256"
                },
                {
                  "internalType": "uint256",
                  "name": "remainingDeposits",
                  "type": "uint256"
                },
                {
                  "internalType": "uint256",
                  "name": "outstandingIntentAmount",
                  "type": "uint256"
                },
                {
                  "internalType": "uint256",
                  "name": "conversionRate",
                  "type": "uint256"
                },
                {
                  "internalType": "bytes32[]",
                  "name": "intentHashes",
                  "type": "bytes32[]"
                }
              ],
              "internalType": "struct UPIRamp.Deposit",
              "name": "deposit",
              "type": "tuple"
            },
            {
              "internalType": "uint256",
              "name": "availableLiquidity",
              "type": "uint256"
            }
          ],
          "internalType": "struct UPIRamp.DepositWithAvailableLiquidity[]",
          "name": "depositArray",
          "type": "tuple[]"
        }
      ],
      "stateMutability": "view",
      "type": "function"
    },
    {
      "inputs": [
        {
          "internalType": "address",
          "name": "_account",
          "type": "address"
        }
      ],
      "name": "getIdCurrentIntentHash",
      "outputs": [
        {
          "internalType": "bytes32",
          "name": "",
          "type": "bytes32"
        }
      ],
      "stateMutability": "view",
      "type": "function"
    },
    {
      "inputs": [
        {
          "internalType": "address",
          "name": "_account",
          "type": "address"
        }
      ],
      "name": "getLastOnRampTimestamp",
      "outputs": [
        {
          "internalType": "uint256",
          "name": "",
          "type": "uint256"
        }
      ],
      "stateMutability": "view",
      "type": "function"
    },
    {
      "inputs": [
        {
          "internalType": "contract IRegistrationProcessor",
          "name": "_registrationProcessor",
          "type": "address"
        },
        {
          "internalType": "contract IUPISendProcessor",
          "name": "_sendProcessor",
          "type": "address"
        }
      ],
      "name": "initialize",
      "outputs": [],
      "stateMutability": "nonpayable",
      "type": "function"
    },
    {
      "inputs": [],
      "name": "intentExpirationPeriod",
      "outputs": [
        {
          "internalType": "uint256",
          "name": "",
          "type": "uint256"
        }
      ],
      "stateMutability": "view",
      "type": "function"
    },
    {
      "inputs": [
        {
          "internalType": "bytes32",
          "name": "",
          "type": "bytes32"
        }
      ],
      "name": "intents",
      "outputs": [
        {
          "internalType": "address",
          "name": "onRamper",
          "type": "address"
        },
        {
          "internalType": "address",
          "name": "to",
          "type": "address"
        },
        {
          "internalType": "uint256",
          "name": "deposit",
          "type": "uint256"
        },
        {
          "internalType": "uint256",
          "name": "amount",
          "type": "uint256"
        },
        {
          "internalType": "uint256",
          "name": "intentTimestamp",
          "type": "uint256"
        }
      ],
      "stateMutability": "view",
      "type": "function"
    },
    {
      "inputs": [],
      "name": "maxOnRampAmount",
      "outputs": [
        {
          "internalType": "uint256",
          "name": "",
          "type": "uint256"
        }
      ],
      "stateMutability": "view",
      "type": "function"
    },
    {
      "inputs": [],
      "name": "minDepositAmount",
      "outputs": [
        {
          "internalType": "uint256",
          "name": "",
          "type": "uint256"
        }
      ],
      "stateMutability": "view",
      "type": "function"
    },
    {
      "inputs": [
        {
          "internalType": "string",
          "name": "_upiId",
          "type": "string"
        },
        {
          "internalType": "uint256",
          "name": "_depositAmount",
          "type": "uint256"
        },
        {
          "internalType": "uint256",
          "name": "_receiveAmount",
          "type": "uint256"
        }
      ],
      "name": "offRamp",
      "outputs": [],
      "stateMutability": "nonpayable",
      "type": "function"
    },
    {
      "inputs": [
        {
          "internalType": "uint256[2]",
          "name": "_a",
          "type": "uint256[2]"
        },
        {
          "internalType": "uint256[2][2]",
          "name": "_b",
          "type": "uint256[2][2]"
        },
        {
          "internalType": "uint256[2]",
          "name": "_c",
          "type": "uint256[2]"
        },
        {
          "internalType": "uint256[3]",
          "name": "_signals",
          "type": "uint256[3]"
        }
      ],
      "name": "onRamp",
      "outputs": [],
      "stateMutability": "nonpayable",
      "type": "function"
    },
    {
      "inputs": [],
      "name": "onRampCooldownPeriod",
      "outputs": [
        {
          "internalType": "uint256",
          "name": "",
          "type": "uint256"
        }
      ],
      "stateMutability": "view",
      "type": "function"
    },
    {
      "inputs": [],
      "name": "owner",
      "outputs": [
        {
          "internalType": "address",
          "name": "",
          "type": "address"
        }
      ],
      "stateMutability": "view",
      "type": "function"
    },
    {
      "inputs": [],
      "name": "poseidon3",
      "outputs": [
        {
          "internalType": "contract IPoseidon3",
          "name": "",
          "type": "address"
        }
      ],
      "stateMutability": "view",
      "type": "function"
    },
    {
      "inputs": [],
      "name": "poseidon6",
      "outputs": [
        {
          "internalType": "contract IPoseidon6",
          "name": "",
          "type": "address"
        }
      ],
      "stateMutability": "view",
      "type": "function"
    },
    {
      "inputs": [
        {
          "internalType": "uint256[2]",
          "name": "_a",
          "type": "uint256[2]"
        },
        {
          "internalType": "uint256[2][2]",
          "name": "_b",
          "type": "uint256[2][2]"
        },
        {
          "internalType": "uint256[2]",
          "name": "_c",
          "type": "uint256[2]"
        },
        {
          "internalType": "uint256[1]",
          "name": "_signals",
          "type": "uint256[1]"
        }
      ],
      "name": "register",
      "outputs": [],
      "stateMutability": "nonpayable",
      "type": "function"
    },
    {
      "inputs": [],
      "name": "registrationProcessor",
      "outputs": [
        {
          "internalType": "contract IRegistrationProcessor",
          "name": "",
          "type": "address"
        }
      ],
      "stateMutability": "view",
      "type": "function"
    },
    {
      "inputs": [],
      "name": "renounceOwnership",
      "outputs": [],
      "stateMutability": "nonpayable",
      "type": "function"
    },
    {
      "inputs": [],
      "name": "sendProcessor",
      "outputs": [
        {
          "internalType": "contract IUPISendProcessor",
          "name": "",
          "type": "address"
        }
      ],
      "stateMutability": "view",
      "type": "function"
    },
    {
      "inputs": [
        {
          "internalType": "uint256",
          "name": "_maxOnRampAmount",
          "type": "uint256"
        }
      ],
      "name": "setMaxOnRampAmount",
      "outputs": [],
      "stateMutability": "nonpayable",
      "type": "function"
    },
    {
      "inputs": [
        {
          "internalType": "contract IRegistrationProcessor",
          "name": "_registrationProcessor",
          "type": "address"
        }
      ],
      "name": "setRegistrationProcessor",
      "outputs": [],
      "stateMutability": "nonpayable",
      "type": "function"
    },
    {
      "inputs": [
        {
          "internalType": "contract IUPISendProcessor",
          "name": "_sendProcessor",
          "type": "address"
        }
      ],
      "name": "setSendProcessor",
      "outputs": [],
      "stateMutability": "nonpayable",
      "type": "function"
    },
    {
      "inputs": [
        {
          "internalType": "uint256",
          "name": "_depositId",
          "type": "uint256"
        },
        {
          "internalType": "uint256",
          "name": "_amount",
          "type": "uint256"
        },
        {
          "internalType": "address",
          "name": "_to",
          "type": "address"
        }
      ],
      "name": "signalIntent",
      "outputs": [],
      "stateMutability": "nonpayable",
      "type": "function"
    },
    {
      "inputs": [],
      "name": "sustainabilityFee",
      "outputs": [
        {
          "internalType": "uint256",
          "name": "",
          "type": "uint256"
        }
      ],
      "stateMutability": "view",
      "type": "function"
    },
    {
      "inputs": [],
      "name": "sustainabilityFeeRecipient",
      "outputs": [
        {
          "internalType": "address",
          "name": "",
          "type": "address"
        }
      ],
      "stateMutability": "view",
      "type": "function"
    },
    {
      "inputs": [
        {
          "internalType": "address",
          "name": "newOwner",
          "type": "address"
        }
      ],
      "name": "transferOwnership",
      "outputs": [],
      "stateMutability": "nonpayable",
      "type": "function"
    },
    {
      "inputs": [],
      "name": "usdc",
      "outputs": [
        {
          "internalType": "contract IERC20",
          "name": "",
          "type": "address"
        }
      ],
      "stateMutability": "view",
      "type": "function"
    }
  ],
  "bytecode": "0x60e06040523480156200001157600080fd5b5060405162003038380380620030388339810160408190526200003491620001eb565b6200003f33620000a4565b6001600160a01b0389811660805288811660a05287811660c05260078790556008869055600a8590556009849055600b839055600c80546001600160a01b031916918316919091179055620000948a620000f4565b505050505050505050506200029e565b600080546001600160a01b038381166001600160a01b0319831681178455604051919092169283917f8be0079c531659141344cd1fd0a4f28419497f9722a3daafe3b4186f6b6457e09190a35050565b620000fe62000177565b6001600160a01b038116620001695760405162461bcd60e51b815260206004820152602660248201527f4f776e61626c653a206e6577206f776e657220697320746865207a65726f206160448201526564647265737360d01b60648201526084015b60405180910390fd5b6200017481620000a4565b50565b6000546001600160a01b03163314620001d35760405162461bcd60e51b815260206004820181905260248201527f4f776e61626c653a2063616c6c6572206973206e6f7420746865206f776e6572604482015260640162000160565b565b6001600160a01b03811681146200017457600080fd5b6000806000806000806000806000806101408b8d0312156200020c57600080fd5b8a516200021981620001d5565b60208c0151909a506200022c81620001d5565b60408c01519099506200023f81620001d5565b60608c01519098506200025281620001d5565b8097505060808b0151955060a08b0151945060c08b0151935060e08b015192506101008b015191506101208b01516200028b81620001d5565b809150509295989b9194979a5092959850565b60805160a05160c051612d55620002e360003960006102f0015260006104c401526000818161034201528181610a0101528181611a5e0152611b0d0152612d556000f3fe608060405234801561001057600080fd5b50600436106101e55760003560e01c806371a28f691161010f578063cce3e038116100a2578063ecb3dc8811610071578063ecb3dc8814610515578063ed1692b81461051e578063eea1d19714610531578063f2fde38b1461054457600080fd5b8063cce3e038146104bf578063d9478d20146104e6578063e215ad59146104f9578063e279d9641461050c57600080fd5b80639087beff116100de5780639087beff1461045e5780639f9fb96814610471578063a1a954b714610491578063b02c43d01461049a57600080fd5b806371a28f69146103915780637b510fe8146103b15780638da5cb5b146103d15780639021578a146103e257600080fd5b806337fbdf6d11610187578063485cc95511610156578063485cc95514610364578063495223e714610377578063645006ca14610380578063715018a61461038957600080fd5b806337fbdf6d146102d85780633930a439146102eb5780633adba28a1461032a5780633e413bee1461033d57600080fd5b806314ec32fa116101c357806314ec32fa1461025e578063238c84941461029457806327c6e6931461029d578063314a61c5146102c557600080fd5b80630d4c3ad9146101ea5780630f1ef98c146101ff578063133de6cb1461024b575b600080fd5b6101fd6101f83660046123e8565b610557565b005b61023861020d3660046124b5565b6001600160a01b03166000908152600460209081526040808320548352600390915290206001015490565b6040519081526020015b60405180910390f35b6101fd6102593660046124b5565b6105e4565b61023861026c3660046124b5565b6001600160a01b03166000908152600460209081526040808320548352600390915290205490565b610238600b5481565b6102b06102ab3660046124d9565b61060e565b60408051928352602083019190915201610242565b6101fd6102d33660046124f2565b61069d565b6101fd6102e63660046125aa565b610733565b6103127f000000000000000000000000000000000000000000000000000000000000000081565b6040516001600160a01b039091168152602001610242565b6101fd610338366004612650565b610a77565b6103127f000000000000000000000000000000000000000000000000000000000000000081565b6101fd610372366004612689565b610fae565b61023860095481565b61023860075481565b6101fd611041565b6103a461039f3660046126c2565b611055565b604051610242919061284c565b6103c46103bf3660046124b5565b61128d565b60405161024291906128cd565b6000546001600160a01b0316610312565b61042b6103f03660046124d9565b600660205260009081526040902080546001820154600283015460038401546004909401546001600160a01b03938416949390921692909185565b604080516001600160a01b039687168152959094166020860152928401919091526060830152608082015260a001610242565b6101fd61046c3660046124d9565b611327565b61048461047f3660046124d9565b61138e565b6040516102429190612917565b610238600a5481565b6104ad6104a83660046124d9565b6114d9565b6040516102429695949392919061292a565b6103127f000000000000000000000000000000000000000000000000000000000000000081565b600c54610312906001600160a01b031681565b600154610312906001600160a01b031681565b61023860085481565b610238600d5481565b6101fd61052c3660046124b5565b6115a0565b600254610312906001600160a01b031681565b6101fd6105523660046124b5565b6115ca565b600080600061056887878787611643565b92509250925061057882826118b2565b82606001518260040160008282546105909190612989565b909155505082516001600160a01b03166000908152600460209081526040808320548352600390915290819020426001909101558301516105d1908361195a565b6105db8184611a01565b50505050505050565b6105ec611b7a565b600280546001600160a01b0319166001600160a01b0392909216919091179055565b600080805260056020527f05b8ccbb9d4d8fb16ea74ce3c29a41f1b461fbdaff4714a0d9a8eb05499746c15460015b600d548110156106975760008181526005602081905260409091200154828111801561067a57506000828152600560205260409020600301548511155b15610686578193508092505b50610690816129a2565b905061063d565b50915091565b336000908152600460205260409020541561070e5760405162461bcd60e51b815260206004820152602660248201527f4163636f756e7420616c7265616479206173736f6369617465642077697468206044820152650d2c890c2e6d60d31b60648201526084015b60405180910390fd5b600061071c85858585611bd4565b336000908152600460205260409020555050505050565b3360009081526004602052604090205461078f5760405162461bcd60e51b815260206004820152601e60248201527f43616c6c6572206d7573742062652072656769737465726564207573657200006044820152606401610705565b336000908152600460205260409020600101546005116107f15760405162461bcd60e51b815260206004820152601e60248201527f4d6178696d756d206465706f73697420616d6f756e74207265616368656400006044820152606401610705565b6007548210156108625760405162461bcd60e51b815260206004820152603660248201527f4465706f73697420616d6f756e74206d757374206265206772656174657220746044820152751a185b881b5a5b8819195c1bdcda5d08185b5bdd5b9d60521b6064820152608401610705565b600081116108c05760405162461bcd60e51b815260206004820152602560248201527f5265636569766520616d6f756e74206d75737420626520677265617465722074604482015264068616e20360dc1b6064820152608401610705565b6000816108d5670de0b6b3a7640000856129bb565b6108df91906129e8565b600d805491925060009190826108f4836129a2565b9091555033600081815260046020908152604080832060018082018054808301825590865284862001879055825160e0810184529586528584018c81528684018c9052606087018c90526080870186905260a087018a90528351868152808601855260c0880152878652600590945291909320845181546001600160a01b0319166001600160a01b039091161781559151949550919390918201906109999082612a7e565b5060408201516002820155606082015160038201556080820151600482015560a0820151600582015560c082015180516109dd9160068401916020909101906121b8565b50506040516323b872dd60e01b8152336004820152306024820152604481018790527f00000000000000000000000000000000000000000000000000000000000000006001600160a01b031691506323b872dd906064016020604051808303816000875af1158015610a53573d6000803e3d6000fd5b505050506040513d601f19601f820116820180604052508101906105db9190612b3e565b33600090815260046020526040902054610ad35760405162461bcd60e51b815260206004820152601e60248201527f43616c6c6572206d7573742062652072656769737465726564207573657200006044820152606401610705565b336000908152600460208181526040808420548785526005835281852080546001600160a01b031686529383528185205480865260038085528387208388520190935293205460ff1615610b695760405162461bcd60e51b815260206004820181905260248201527f4f6e72616d706572206f6e206465706f7369746f7227732064656e796c6973746044820152606401610705565b6009546000848152600360205260409020600101544291610b8991612b60565b1115610be35760405162461bcd60e51b8152602060048201526024808201527f4f6e2072616d7020636f6f6c20646f776e20706572696f64206e6f7420656c616044820152631c1cd95960e21b6064820152608401610705565b60008381526003602052604090205415610c3f5760405162461bcd60e51b815260206004820152601860248201527f496e74656e74207374696c6c206f75747374616e64696e6700000000000000006044820152606401610705565b828103610c8e5760405162461bcd60e51b815260206004820152601e60248201527f53656e6465722063616e6e6f7420626520746865206465706f7369746f7200006044820152606401610705565b81546001600160a01b0316610cde5760405162461bcd60e51b815260206004820152601660248201527511195c1bdcda5d08191bd95cc81b9bdd08195e1a5cdd60521b6044820152606401610705565b60008511610d3d5760405162461bcd60e51b815260206004820152602660248201527f5369676e616c656420616d6f756e74206d75737420626520677265617465722060448201526507468616e20360d41b6064820152608401610705565b600854851115610dac5760405162461bcd60e51b815260206004820152603460248201527f5369676e616c656420616d6f756e74206d757374206265206c657373207468616044820152731b881b585e081bdb8b5c985b5c08185b5bdd5b9d60621b6064820152608401610705565b6001600160a01b038416610e025760405162461bcd60e51b815260206004820152601b60248201527f43616e6e6f742073656e6420746f207a65726f206164647265737300000000006044820152606401610705565b6000610e0e8488611c72565b90508583600301541015610ec357600080610e2889611cdd565b9150915087818660030154610e3d9190612b60565b1015610e825760405162461bcd60e51b81526020600482015260146024820152734e6f7420656e6f756768206c697175696469747960601b6044820152606401610705565b610e8c8583611e85565b80856003016000828254610ea09190612b60565b9250508190555080856004016000828254610ebb9190612989565b909155505050505b6040805160a0810182523381526001600160a01b0387811660208084019182528385018c8152606085018c81524260808701908152600089815260068552888120975188549088166001600160a01b031991821617895595516001890180549190981696169590951790955590516002860155516003808601919091559251600490940193909355878152918190529181208390559084018054889290610f6b908490612989565b9250508190555085836004016000828254610f869190612b60565b9091555050600690920180546001810182556000918252602090912001919091555050505050565b610fb6611b7a565b600254600160a01b900460ff16156110065760405162461bcd60e51b8152602060048201526013602482015272105b1c9958591e481a5b9a5d1a585b1a5e9959606a1b6044820152606401610705565b600180546001600160a01b039384166001600160a01b0319909116179055600280546001600160a81b0319169190921617600160a01b179055565b611049611b7a565b6110536000611ee7565b565b6060815167ffffffffffffffff811115611071576110716122d9565b6040519080825280602002602001820160405280156110aa57816020015b611097612203565b81526020019060019003908161108f5790505b50905060005b82518110156112875760008382815181106110cd576110cd612b73565b6020908102919091018101516000818152600583526040808220815160e0810190925280546001600160a01b03168252600181018054949650929491939092918401919061111a906129fc565b80601f0160208091040260200160405190810160405280929190818152602001828054611146906129fc565b80156111935780601f1061116857610100808354040283529160200191611193565b820191906000526020600020905b81548152906001019060200180831161117657829003601f168201915b50505050508152602001600282015481526020016003820154815260200160048201548152602001600582015481526020016006820180548060200260200160405190810160405280929190818152602001828054801561121357602002820191906000526020600020905b8154815260200190600101908083116111ff575b5050505050815250509050600061122983611cdd565b91505060405180606001604052808481526020018381526020018284606001516112539190612b60565b81525085858151811061126857611268612b73565b602002602001018190525050505080611280906129a2565b90506110b0565b50919050565b6040805180820190915260008152606060208201526001600160a01b03821660009081526004602090815260409182902082518084018452815481526001820180548551818602810186019096528086529194929385810193929083018282801561131757602002820191906000526020600020905b815481526020019060010190808311611303575b5050505050815250509050919050565b61132f611b7a565b806000036113895760405162461bcd60e51b815260206004820152602160248201527f4d6178206f6e2072616d7020616d6f756e742063616e6e6f74206265207a65726044820152606f60f81b6064820152608401610705565b600855565b61139661222a565b600082815260056020908152604091829020825160e0810190935280546001600160a01b0316835260018101805491928401916113d2906129fc565b80601f01602080910402602001604051908101604052809291908181526020018280546113fe906129fc565b801561144b5780601f106114205761010080835404028352916020019161144b565b820191906000526020600020905b81548152906001019060200180831161142e57829003601f168201915b5050505050815260200160028201548152602001600382015481526020016004820154815260200160058201548152602001600682018054806020026020016040519081016040528092919081815260200182805480156113175760200282019190600052602060002090815481526020019060010190808311611303575050505050815250509050919050565b600560205260009081526040902080546001820180546001600160a01b039092169291611505906129fc565b80601f0160208091040260200160405190810160405280929190818152602001828054611531906129fc565b801561157e5780601f106115535761010080835404028352916020019161157e565b820191906000526020600020905b81548152906001019060200180831161156157829003601f168201915b5050505050908060020154908060030154908060040154908060050154905086565b6115a8611b7a565b600180546001600160a01b0319166001600160a01b0392909216919091179055565b6115d2611b7a565b6001600160a01b0381166116375760405162461bcd60e51b815260206004820152602660248201527f4f776e61626c653a206e6577206f776e657220697320746865207a65726f206160448201526564647265737360d01b6064820152608401610705565b61164081611ee7565b50565b6116876040518060a0016040528060006001600160a01b0316815260200160006001600160a01b031681526020016000815260200160008152602001600081525090565b60025460408051608081018252878152602081018790528082018690526060810185905290516345452acd60e01b815260009283928392839283926001600160a01b03909116916345452acd916116e091600401612bda565b6060604051808303816000875af11580156116ff573d6000803e3d6000fd5b505050506040513d601f19601f820116820180604052508101906117239190612c49565b6000818152600660209081526040808320815160a08101835281546001600160a01b039081168252600183015481168286015260028301548285018190526003840154606084015260049093015460808301529185526005909352922081519598509396509194509092166117d25760405162461bcd60e51b8152602060048201526015602482015274125b9d195b9d08191bd95cc81b9bdd08195e1a5cdd605a1b6044820152606401610705565b83826080015111156118315760405162461bcd60e51b815260206004820152602260248201527f496e74656e7420776173206e6f742063726561746564206265666f72652073656044820152611b9960f21b6064820152608401610705565b8060050154670de0b6b3a7640000836060015161184e91906129bb565b61185891906129e8565b8510156118a05760405162461bcd60e51b81526020600482015260166024820152750a0c2f2dacadce840eec2e640dcdee840cadcdeeaced60531b6044820152606401610705565b909b909a509098509650505050505050565b6000818152600660208181526040808420815160a08101835281546001600160a01b039081168083526001840180549092168387015260028401805484870152600380860180546060870152600480880180546080890152948c528952878b20548b529088529589208990558989529587905283546001600160a01b03199081169094558154909316905592859055908490559290925561195590840183611f37565b505050565b6000816003015482600401546119709190612b60565b9050806000036119555781546001600160a01b031660009081526004602052604090206119a09060010184612060565b600083815260056020526040812080546001600160a01b0319168155906119ca6001830182612270565b60028201600090556003820160009055600482016000905560058201600090556006820160006119fa91906122aa565b5050505050565b6000600b54600014611acd57670de0b6b3a7640000600b548360600151611a2891906129bb565b611a3291906129e8565b600c5460405163a9059cbb60e01b81526001600160a01b039182166004820152602481018390529192507f0000000000000000000000000000000000000000000000000000000000000000169063a9059cbb906044016020604051808303816000875af1158015611aa7573d6000803e3d6000fd5b505050506040513d601f19601f82011682018060405250810190611acb9190612b3e565b505b6000818360600151611adf9190612989565b602084015160405163a9059cbb60e01b81526001600160a01b039182166004820152602481018390529192507f0000000000000000000000000000000000000000000000000000000000000000169063a9059cbb906044016020604051808303816000875af1158015611b56573d6000803e3d6000fd5b505050506040513d601f19601f820116820180604052508101906119fa9190612b3e565b6000546001600160a01b031633146110535760405162461bcd60e51b815260206004820181905260248201527f4f776e61626c653a2063616c6c6572206973206e6f7420746865206f776e65726044820152606401610705565b6001546040805160808101825286815260208101869052808201859052606081018490529051637bff11bf60e11b815260009283926001600160a01b039091169163f7fe237e91611c2791600401612c77565b602060405180830381865afa158015611c44573d6000803e3d6000fd5b505050506040513d601f19601f82011682018060405250810190611c689190612cdc565b9695505050505050565b6040805160208101849052908101829052426060820152600090819060800160408051601f1981840301815291905280516020909101209050611cd57f30644e72e131a029b85045b68181585d2833e84879b9709143e1f593f000000182612cf5565b949350505050565b60008181526005602090815260408083206006018054825181850281018501909352808352606094938493929190830182828015611d3a57602002820191906000526020600020905b815481526020019060010190808311611d26575b50505050509050805167ffffffffffffffff811115611d5b57611d5b6122d9565b604051908082528060200260200182016040528015611d84578160200160208202803683370190505b50925060005b8151811015611e7e57600060066000848481518110611dab57611dab612b73565b6020908102919091018101518252818101929092526040908101600020815160a08101835281546001600160a01b03908116825260018301541693810193909352600281015491830191909152600381015460608301526004015460808201819052600a549192504291611e1e91612b60565b1015611e6d57828281518110611e3657611e36612b73565b6020026020010151858381518110611e5057611e50612b73565b60209081029190910101526060810151611e6a9085612b60565b93505b50611e77816129a2565b9050611d8a565b5050915091565b60005b8151811015611955576000801b828281518110611ea757611ea7612b73565b602002602001015114611ed757611ed783838381518110611eca57611eca612b73565b60200260200101516118b2565b611ee0816129a2565b9050611e88565b600080546001600160a01b038381166001600160a01b0319831681178455604051919092169283917f8be0079c531659141344cd1fd0a4f28419497f9722a3daafe3b4186f6b6457e09190a35050565b600080611f9384805480602002602001604051908101604052809291908181526020018280548015611f8857602002820191906000526020600020905b815481526020019060010190808311611f74575b505050505084612105565b9150915080611fdc5760405162461bcd60e51b8152602060048201526015602482015274313cba32b99999103737ba1034b71030b93930bc9760591b6044820152606401610705565b8354600090611fed90600190612989565b90508083146120325784818154811061200857612008612b73565b906000526020600020015485848154811061202557612025612b73565b6000918252602090912001555b8480548061204257612042612d09565b60019003818190600052602060002001600090559055505b50505050565b6000806120bc848054806020026020016040519081016040528092919081815260200182805480156120b157602002820191906000526020600020905b81548152602001906001019080831161209d575b505050505084612168565b9150915080611fdc5760405162461bcd60e51b81526020600482015260156024820152743ab4b73a191a9b103737ba1034b71030b93930bc9760591b6044820152606401610705565b81516000908190815b81811015612155578486828151811061212957612129612b73565b602002602001015103612143579250600191506121619050565b8061214d816129a2565b91505061210e565b50600019600092509250505b9250929050565b81516000908190815b81811015612155578486828151811061218c5761218c612b73565b6020026020010151036121a6579250600191506121619050565b806121b0816129a2565b915050612171565b8280548282559060005260206000209081019282156121f3579160200282015b828111156121f35782518255916020019190600101906121d8565b506121ff9291506122c4565b5090565b60405180606001604052806000815260200161221d61222a565b8152602001600081525090565b6040518060e0016040528060006001600160a01b031681526020016060815260200160008152602001600081526020016000815260200160008152602001606081525090565b50805461227c906129fc565b6000825580601f1061228c575050565b601f01602090049060005260206000209081019061164091906122c4565b508054600082559060005260206000209081019061164091905b5b808211156121ff57600081556001016122c5565b634e487b7160e01b600052604160045260246000fd5b6040805190810167ffffffffffffffff81118282101715612312576123126122d9565b60405290565b604051601f8201601f1916810167ffffffffffffffff81118282101715612341576123416122d9565b604052919050565b600082601f83011261235a57600080fd5b6123626122ef565b80604084018581111561237457600080fd5b845b8181101561238e578035845260209384019301612376565b509095945050505050565b600082601f8301126123aa57600080fd5b6123b26122ef565b8060808401858111156123c457600080fd5b845b8181101561238e576123d88782612349565b84526020909301926040016123c6565b60008060008061016080868803121561240057600080fd5b61240a8787612349565b94506124198760408801612399565b93506124288760c08801612349565b92508661011f87011261243a57600080fd5b6040516060810181811067ffffffffffffffff8211171561245d5761245d6122d9565b60405290860190808883111561247257600080fd5b61010088015b83811015612490578035825260209182019101612478565b5050809250505092959194509250565b6001600160a01b038116811461164057600080fd5b6000602082840312156124c757600080fd5b81356124d2816124a0565b9392505050565b6000602082840312156124eb57600080fd5b5035919050565b60008060008061012080868803121561250a57600080fd5b6125148787612349565b94506125238760408801612399565b93506125328760c08801612349565b92508661011f87011261254457600080fd5b604051602080820182811067ffffffffffffffff82111715612568576125686122d9565b60405291870191818984111561257d57600080fd5b61010089015b8481101561259a5780358252908201908201612583565b5096999598509396509450505050565b6000806000606084860312156125bf57600080fd5b833567ffffffffffffffff808211156125d757600080fd5b818601915086601f8301126125eb57600080fd5b81356020828211156125ff576125ff6122d9565b612611601f8301601f19168201612318565b9250818352888183860101111561262757600080fd5b818185018285013760009183018101919091529097908601359650604090950135949350505050565b60008060006060848603121561266557600080fd5b8335925060208401359150604084013561267e816124a0565b809150509250925092565b6000806040838503121561269c57600080fd5b82356126a7816124a0565b915060208301356126b7816124a0565b809150509250929050565b600060208083850312156126d557600080fd5b823567ffffffffffffffff808211156126ed57600080fd5b818501915085601f83011261270157600080fd5b813581811115612713576127136122d9565b8060051b9150612724848301612318565b818152918301840191848101908884111561273e57600080fd5b938501935b8385101561275c57843582529385019390850190612743565b98975050505050505050565b6000815180845260005b8181101561278e57602081850181015186830182015201612772565b506000602082860101526020601f19601f83011685010191505092915050565b60018060a01b038151168252600060208083015160e0828601526127d560e0860182612768565b905060408401516040860152606084015160608601526080840151608086015260a084015160a086015260c084015185820360c087015281815180845284840191508483019350600092505b808310156128415783518252928401926001929092019190840190612821565b509695505050505050565b60006020808301818452808551808352604092508286019150828160051b87010184880160005b838110156128bf57603f19898403018552815160608151855288820151818a8701526128a1828701826127ae565b92890151958901959095525094870194925090860190600101612873565b509098975050505050505050565b602080825282518282015282810151604080840152805160608401819052600092918201908390608086019080156128415783518252928401926001929092019190840190612821565b6020815260006124d260208301846127ae565b6001600160a01b038716815260c06020820181905260009061294e90830188612768565b90508560408301528460608301528360808301528260a0830152979650505050505050565b634e487b7160e01b600052601160045260246000fd5b8181038181111561299c5761299c612973565b92915050565b6000600182016129b4576129b4612973565b5060010190565b808202811582820484141761299c5761299c612973565b634e487b7160e01b600052601260045260246000fd5b6000826129f7576129f76129d2565b500490565b600181811c90821680612a1057607f821691505b60208210810361128757634e487b7160e01b600052602260045260246000fd5b601f82111561195557600081815260208120601f850160051c81016020861015612a575750805b601f850160051c820191505b81811015612a7657828155600101612a63565b505050505050565b815167ffffffffffffffff811115612a9857612a986122d9565b612aac81612aa684546129fc565b84612a30565b602080601f831160018114612ae15760008415612ac95750858301515b600019600386901b1c1916600185901b178555612a76565b600085815260208120601f198616915b82811015612b1057888601518255948401946001909101908401612af1565b5085821015612b2e5787850151600019600388901b60f8161c191681555b5050505050600190811b01905550565b600060208284031215612b5057600080fd5b815180151581146124d257600080fd5b8082018082111561299c5761299c612973565b634e487b7160e01b600052603260045260246000fd5b8060005b600281101561205a578151845260209384019390910190600101612b8d565b8060005b600281101561205a57612bc4848351612b89565b6040939093019260209190910190600101612bb0565b600061016082019050612bee828451612b89565b602080840151612c016040850182612bac565b506040840151612c1460c0850182612b89565b506060840151610100840160005b6003811015612c3f57825182529183019190830190600101612c22565b5050505092915050565b600080600060608486031215612c5e57600080fd5b8351925060208401519150604084015190509250925092565b600061012082019050612c8b828451612b89565b602080840151612c9e6040850182612bac565b506040840151612cb160c0850182612b89565b506060840151610100840160005b6001811015612c3f57825182529183019190830190600101612cbf565b600060208284031215612cee57600080fd5b5051919050565b600082612d0457612d046129d2565b500690565b634e487b7160e01b600052603160045260246000fdfea2646970667358221220a05ee12368b79680e1a65a166c31843e8a6c35b001f48d51706354cb34ad8ae264736f6c63430008120033",
  "linkReferences": {},
  "deployedLinkReferences": {}
}